{
  "contractName": "Flipkart",
  "abi": [
    {
      "inputs": [],
      "stateMutability": "nonpayable",
      "type": "constructor"
    },
    {
      "anonymous": false,
      "inputs": [
        {
          "indexed": true,
          "internalType": "address",
          "name": "owner",
          "type": "address"
        },
        {
          "indexed": true,
          "internalType": "address",
          "name": "approved",
          "type": "address"
        },
        {
          "indexed": true,
          "internalType": "uint256",
          "name": "tokenId",
          "type": "uint256"
        }
      ],
      "name": "Approval",
      "type": "event"
    },
    {
      "anonymous": false,
      "inputs": [
        {
          "indexed": true,
          "internalType": "address",
          "name": "owner",
          "type": "address"
        },
        {
          "indexed": true,
          "internalType": "address",
          "name": "operator",
          "type": "address"
        },
        {
          "indexed": false,
          "internalType": "bool",
          "name": "approved",
          "type": "bool"
        }
      ],
      "name": "ApprovalForAll",
      "type": "event"
    },
    {
      "anonymous": false,
      "inputs": [
        {
          "indexed": true,
          "internalType": "address",
          "name": "from",
          "type": "address"
        },
        {
          "indexed": true,
          "internalType": "address",
          "name": "to",
          "type": "address"
        },
        {
          "indexed": true,
          "internalType": "uint256",
          "name": "tokenId",
          "type": "uint256"
        }
      ],
      "name": "Transfer",
      "type": "event"
    },
    {
      "inputs": [
        {
          "internalType": "uint256",
          "name": "",
          "type": "uint256"
        }
      ],
      "name": "allProducts",
      "outputs": [
        {
          "internalType": "uint256",
          "name": "tokenId",
          "type": "uint256"
        },
        {
          "internalType": "string",
          "name": "productId",
          "type": "string"
        },
        {
          "internalType": "string",
          "name": "productName",
          "type": "string"
        },
        {
          "internalType": "address",
          "name": "owner",
          "type": "address"
        },
        {
          "internalType": "uint256",
          "name": "expiryDate",
          "type": "uint256"
        }
      ],
      "stateMutability": "view",
      "type": "function",
      "constant": true
    },
    {
      "inputs": [
        {
          "internalType": "address",
          "name": "to",
          "type": "address"
        },
        {
          "internalType": "uint256",
          "name": "tokenId",
          "type": "uint256"
        }
      ],
      "name": "approve",
      "outputs": [],
      "stateMutability": "nonpayable",
      "type": "function"
    },
    {
      "inputs": [
        {
          "internalType": "address",
          "name": "owner",
          "type": "address"
        }
      ],
      "name": "balanceOf",
      "outputs": [
        {
          "internalType": "uint256",
          "name": "",
          "type": "uint256"
        }
      ],
      "stateMutability": "view",
      "type": "function",
      "constant": true
    },
    {
      "inputs": [
        {
          "internalType": "uint256",
          "name": "tokenId",
          "type": "uint256"
        }
      ],
      "name": "getApproved",
      "outputs": [
        {
          "internalType": "address",
          "name": "",
          "type": "address"
        }
      ],
      "stateMutability": "view",
      "type": "function",
      "constant": true
    },
    {
      "inputs": [
        {
          "internalType": "address",
          "name": "owner",
          "type": "address"
        },
        {
          "internalType": "address",
          "name": "operator",
          "type": "address"
        }
      ],
      "name": "isApprovedForAll",
      "outputs": [
        {
          "internalType": "bool",
          "name": "",
          "type": "bool"
        }
      ],
      "stateMutability": "view",
      "type": "function",
      "constant": true
    },
    {
      "inputs": [],
      "name": "name",
      "outputs": [
        {
          "internalType": "string",
          "name": "",
          "type": "string"
        }
      ],
      "stateMutability": "view",
      "type": "function",
      "constant": true
    },
    {
      "inputs": [],
      "name": "owner",
      "outputs": [
        {
          "internalType": "address",
          "name": "",
          "type": "address"
        }
      ],
      "stateMutability": "view",
      "type": "function",
      "constant": true
    },
    {
      "inputs": [
        {
          "internalType": "uint256",
          "name": "tokenId",
          "type": "uint256"
        }
      ],
      "name": "ownerOf",
      "outputs": [
        {
          "internalType": "address",
          "name": "",
          "type": "address"
        }
      ],
      "stateMutability": "view",
      "type": "function",
      "constant": true
    },
    {
      "inputs": [
        {
          "internalType": "address",
          "name": "",
          "type": "address"
        },
        {
          "internalType": "uint256",
          "name": "",
          "type": "uint256"
        }
      ],
      "name": "productAddress",
      "outputs": [
        {
          "internalType": "uint256",
          "name": "tokenId",
          "type": "uint256"
        },
        {
          "internalType": "string",
          "name": "productId",
          "type": "string"
        },
        {
          "internalType": "string",
          "name": "productName",
          "type": "string"
        },
        {
          "internalType": "address",
          "name": "owner",
          "type": "address"
        },
        {
          "internalType": "uint256",
          "name": "expiryDate",
          "type": "uint256"
        }
      ],
      "stateMutability": "view",
      "type": "function",
      "constant": true
    },
    {
      "inputs": [
        {
          "internalType": "string",
          "name": "",
          "type": "string"
        }
      ],
      "name": "productDetails",
      "outputs": [
        {
          "internalType": "uint256",
          "name": "tokenId",
          "type": "uint256"
        },
        {
          "internalType": "string",
          "name": "productId",
          "type": "string"
        },
        {
          "internalType": "string",
          "name": "productName",
          "type": "string"
        },
        {
          "internalType": "address",
          "name": "owner",
          "type": "address"
        },
        {
          "internalType": "uint256",
          "name": "expiryDate",
          "type": "uint256"
        }
      ],
      "stateMutability": "view",
      "type": "function",
      "constant": true
    },
    {
      "inputs": [
        {
          "internalType": "string",
          "name": "",
          "type": "string"
        }
      ],
      "name": "productExists",
      "outputs": [
        {
          "internalType": "bool",
          "name": "",
          "type": "bool"
        }
      ],
      "stateMutability": "view",
      "type": "function",
      "constant": true
    },
    {
      "inputs": [
        {
          "internalType": "string",
          "name": "",
          "type": "string"
        }
      ],
      "name": "productExpire",
      "outputs": [
        {
          "internalType": "bool",
          "name": "",
          "type": "bool"
        }
      ],
      "stateMutability": "view",
      "type": "function",
      "constant": true
    },
    {
      "inputs": [
        {
          "internalType": "address",
          "name": "from",
          "type": "address"
        },
        {
          "internalType": "address",
          "name": "to",
          "type": "address"
        },
        {
          "internalType": "uint256",
          "name": "tokenId",
          "type": "uint256"
        }
      ],
      "name": "safeTransferFrom",
      "outputs": [],
      "stateMutability": "nonpayable",
      "type": "function"
    },
    {
      "inputs": [
        {
          "internalType": "address",
          "name": "from",
          "type": "address"
        },
        {
          "internalType": "address",
          "name": "to",
          "type": "address"
        },
        {
          "internalType": "uint256",
          "name": "tokenId",
          "type": "uint256"
        },
        {
          "internalType": "bytes",
          "name": "data",
          "type": "bytes"
        }
      ],
      "name": "safeTransferFrom",
      "outputs": [],
      "stateMutability": "nonpayable",
      "type": "function"
    },
    {
      "inputs": [
        {
          "internalType": "address",
          "name": "operator",
          "type": "address"
        },
        {
          "internalType": "bool",
          "name": "approved",
          "type": "bool"
        }
      ],
      "name": "setApprovalForAll",
      "outputs": [],
      "stateMutability": "nonpayable",
      "type": "function"
    },
    {
      "inputs": [
        {
          "internalType": "bytes4",
          "name": "interfaceId",
          "type": "bytes4"
        }
      ],
      "name": "supportsInterface",
      "outputs": [
        {
          "internalType": "bool",
          "name": "",
          "type": "bool"
        }
      ],
      "stateMutability": "view",
      "type": "function",
      "constant": true
    },
    {
      "inputs": [],
      "name": "symbol",
      "outputs": [
        {
          "internalType": "string",
          "name": "",
          "type": "string"
        }
      ],
      "stateMutability": "view",
      "type": "function",
      "constant": true
    },
    {
      "inputs": [
        {
          "internalType": "uint256",
          "name": "tokenId",
          "type": "uint256"
        }
      ],
      "name": "tokenURI",
      "outputs": [
        {
          "internalType": "string",
          "name": "",
          "type": "string"
        }
      ],
      "stateMutability": "view",
      "type": "function",
      "constant": true
    },
    {
      "inputs": [
        {
          "internalType": "address",
          "name": "from",
          "type": "address"
        },
        {
          "internalType": "address",
          "name": "to",
          "type": "address"
        },
        {
          "internalType": "uint256",
          "name": "tokenId",
          "type": "uint256"
        }
      ],
      "name": "transferFrom",
      "outputs": [],
      "stateMutability": "nonpayable",
      "type": "function"
    },
    {
      "inputs": [],
      "name": "getAllProducts",
      "outputs": [
        {
          "components": [
            {
              "internalType": "uint256",
              "name": "tokenId",
              "type": "uint256"
            },
            {
              "internalType": "string",
              "name": "productId",
              "type": "string"
            },
            {
              "internalType": "string",
              "name": "productName",
              "type": "string"
            },
            {
              "internalType": "address",
              "name": "owner",
              "type": "address"
            },
            {
              "internalType": "uint256",
              "name": "expiryDate",
              "type": "uint256"
            }
          ],
          "internalType": "struct Flipkart.Product[]",
          "name": "",
          "type": "tuple[]"
        }
      ],
      "stateMutability": "view",
      "type": "function",
      "constant": true
    },
    {
      "inputs": [],
      "name": "getMyProducts",
      "outputs": [
        {
          "components": [
            {
              "internalType": "uint256",
              "name": "tokenId",
              "type": "uint256"
            },
            {
              "internalType": "string",
              "name": "productId",
              "type": "string"
            },
            {
              "internalType": "string",
              "name": "productName",
              "type": "string"
            },
            {
              "internalType": "address",
              "name": "owner",
              "type": "address"
            },
            {
              "internalType": "uint256",
              "name": "expiryDate",
              "type": "uint256"
            }
          ],
          "internalType": "struct Flipkart.Product[]",
          "name": "",
          "type": "tuple[]"
        }
      ],
      "stateMutability": "view",
      "type": "function",
      "constant": true
    },
    {
      "inputs": [
        {
          "internalType": "string",
          "name": "_productId",
          "type": "string"
        },
        {
          "internalType": "string",
          "name": "_productName",
          "type": "string"
        },
        {
          "internalType": "address",
          "name": "ownerAddress",
          "type": "address"
        },
        {
          "internalType": "uint256",
          "name": "expiryDate",
          "type": "uint256"
        }
      ],
      "name": "createWarranty",
      "outputs": [],
      "stateMutability": "payable",
      "type": "function",
      "payable": true
    },
    {
      "inputs": [
        {
          "internalType": "string",
          "name": "_productId",
          "type": "string"
        }
      ],
      "name": "claim",
      "outputs": [
        {
          "internalType": "bool",
          "name": "",
          "type": "bool"
        }
      ],
      "stateMutability": "payable",
      "type": "function",
      "payable": true
    },
    {
      "inputs": [
        {
          "internalType": "string",
          "name": "_productId",
          "type": "string"
        }
      ],
      "name": "getProductDetails",
      "outputs": [
        {
          "components": [
            {
              "internalType": "uint256",
              "name": "tokenId",
              "type": "uint256"
            },
            {
              "internalType": "string",
              "name": "productId",
              "type": "string"
            },
            {
              "internalType": "string",
              "name": "productName",
              "type": "string"
            },
            {
              "internalType": "address",
              "name": "owner",
              "type": "address"
            },
            {
              "internalType": "uint256",
              "name": "expiryDate",
              "type": "uint256"
            }
          ],
          "internalType": "struct Flipkart.Product",
          "name": "",
          "type": "tuple"
        }
      ],
      "stateMutability": "view",
      "type": "function",
      "constant": true
    },
    {
      "inputs": [
        {
          "internalType": "string",
          "name": "_productId",
          "type": "string"
        },
        {
          "internalType": "address",
          "name": "receiverAddress",
          "type": "address"
        }
      ],
      "name": "transferWarranty",
      "outputs": [
        {
          "internalType": "bool",
          "name": "",
          "type": "bool"
        }
      ],
      "stateMutability": "payable",
      "type": "function",
      "payable": true
    }
  ],
  "bytecode": "0x608060405260016007553480156200001657600080fd5b506040518060400160405280600d81526020017f466c69706b617274546f6b656e000000000000000000000000000000000000008152506040518060400160405280600481526020017f464c50200000000000000000000000000000000000000000000000000000000081525081600090805190602001906200009b929190620000fe565b508060019080519060200190620000b4929190620000fe565b50505033600660006101000a81548173ffffffffffffffffffffffffffffffffffffffff021916908373ffffffffffffffffffffffffffffffffffffffff16021790555062000212565b8280546200010c90620001dd565b90600052602060002090601f0160209004810192826200013057600085556200017c565b82601f106200014b57805160ff19168380011785556200017c565b828001600101855582156200017c579182015b828111156200017b5782518255916020019190600101906200015e565b5b5090506200018b91906200018f565b5090565b5b80821115620001aa57600081600090555060010162000190565b5090565b7f4e487b7100000000000000000000000000000000000000000000000000000000600052602260045260246000fd5b60006002820490506001821680620001f657607f821691505b6020821081036200020c576200020b620001ae565b5b50919050565b614ed880620002226000396000f3fe6080604052600436106101665760003560e01c8063793d3a8a116100d1578063a22cb4651161008a578063cfaaef5611610064578063cfaaef561461059a578063e985e9c5146105db578063f3fe12c914610618578063fdca4ca31461064857610166565b8063a22cb4651461050b578063b88d4fde14610534578063c87b56dd1461055d57610166565b8063793d3a8a146103eb5780638addc051146104075780638da5cb5b1461044457806395d89b411461046f5780639b4e2ffd1461049a578063a19192a6146104db57610166565b8063198c59b011610123578063198c59b0146102a55780632202237d146102e257806323b872dd1461031f57806342842e0e146103485780636352211e1461037157806370a08231146103ae57610166565b806301ffc9a71461016b57806302ee3a52146101a857806306fdde03146101d3578063081812fc146101fe578063095ea7b31461023b57806313c5da5514610264575b600080fd5b34801561017757600080fd5b50610192600480360381019061018d91906138b5565b610673565b60405161019f91906138fd565b60405180910390f35b3480156101b457600080fd5b506101bd610755565b6040516101ca9190613b4a565b60405180910390f35b3480156101df57600080fd5b506101e8610942565b6040516101f59190613bb6565b60405180910390f35b34801561020a57600080fd5b5061022560048036038101906102209190613c04565b6109d4565b6040516102329190613c40565b60405180910390f35b34801561024757600080fd5b50610262600480360381019061025d9190613c87565b610a1a565b005b34801561027057600080fd5b5061028b60048036038101906102869190613dfc565b610b31565b60405161029c959493929190613e54565b60405180910390f35b3480156102b157600080fd5b506102cc60048036038101906102c79190613f15565b610cad565b6040516102d99190613fdf565b60405180910390f35b3480156102ee57600080fd5b5061030960048036038101906103049190613dfc565b610e76565b60405161031691906138fd565b60405180910390f35b34801561032b57600080fd5b5061034660048036038101906103419190614001565b610eac565b005b34801561035457600080fd5b5061036f600480360381019061036a9190614001565b610f0c565b005b34801561037d57600080fd5b5061039860048036038101906103939190613c04565b610f2c565b6040516103a59190613c40565b60405180910390f35b3480156103ba57600080fd5b506103d560048036038101906103d09190614054565b610fdd565b6040516103e29190614081565b60405180910390f35b6104056004803603810190610400919061409c565b611094565b005b34801561041357600080fd5b5061042e60048036038101906104299190613dfc565b61166e565b60405161043b91906138fd565b60405180910390f35b34801561045057600080fd5b506104596116a4565b6040516104669190613c40565b60405180910390f35b34801561047b57600080fd5b506104846116ca565b6040516104919190613bb6565b60405180910390f35b3480156104a657600080fd5b506104c160048036038101906104bc9190613c87565b61175c565b6040516104d2959493929190613e54565b60405180910390f35b6104f560048036038101906104f09190614143565b6118df565b60405161050291906138fd565b60405180910390f35b34801561051757600080fd5b50610532600480360381019061052d91906141cf565b611ec8565b005b34801561054057600080fd5b5061055b600480360381019061055691906142b0565b611ede565b005b34801561056957600080fd5b50610584600480360381019061057f9190613c04565b611f40565b6040516105919190613bb6565b60405180910390f35b3480156105a657600080fd5b506105c160048036038101906105bc9190613c04565b611fa8565b6040516105d2959493929190613e54565b60405180910390f35b3480156105e757600080fd5b5061060260048036038101906105fd9190614333565b61211e565b60405161060f91906138fd565b60405180910390f35b610632600480360381019061062d9190613f15565b6121b2565b60405161063f91906138fd565b60405180910390f35b34801561065457600080fd5b5061065d6124d3565b60405161066a9190613b4a565b60405180910390f35b60007f80ac58cd000000000000000000000000000000000000000000000000000000007bffffffffffffffffffffffffffffffffffffffffffffffffffffffff1916827bffffffffffffffffffffffffffffffffffffffffffffffffffffffff1916148061073e57507f5b5e139f000000000000000000000000000000000000000000000000000000007bffffffffffffffffffffffffffffffffffffffffffffffffffffffff1916827bffffffffffffffffffffffffffffffffffffffffffffffffffffffff1916145b8061074e575061074d826126fd565b5b9050919050565b60606008805480602002602001604051908101604052809291908181526020016000905b8282101561093957838290600052602060002090600502016040518060a0016040529081600082015481526020016001820180546107b6906143a2565b80601f01602080910402602001604051908101604052809291908181526020018280546107e2906143a2565b801561082f5780601f106108045761010080835404028352916020019161082f565b820191906000526020600020905b81548152906001019060200180831161081257829003601f168201915b50505050508152602001600282018054610848906143a2565b80601f0160208091040260200160405190810160405280929190818152602001828054610874906143a2565b80156108c15780601f10610896576101008083540402835291602001916108c1565b820191906000526020600020905b8154815290600101906020018083116108a457829003601f168201915b505050505081526020016003820160009054906101000a900473ffffffffffffffffffffffffffffffffffffffff1673ffffffffffffffffffffffffffffffffffffffff1673ffffffffffffffffffffffffffffffffffffffff16815260200160048201548152505081526020019060010190610779565b50505050905090565b606060008054610951906143a2565b80601f016020809104026020016040519081016040528092919081815260200182805461097d906143a2565b80156109ca5780601f1061099f576101008083540402835291602001916109ca565b820191906000526020600020905b8154815290600101906020018083116109ad57829003601f168201915b5050505050905090565b60006109df82612767565b6004600083815260200190815260200160002060009054906101000a900473ffffffffffffffffffffffffffffffffffffffff169050919050565b6000610a2582610f2c565b90508073ffffffffffffffffffffffffffffffffffffffff168373ffffffffffffffffffffffffffffffffffffffff1603610a95576040517f08c379a0000000000000000000000000000000000000000000000000000000008152600401610a8c90614445565b60405180910390fd5b8073ffffffffffffffffffffffffffffffffffffffff16610ab46127b2565b73ffffffffffffffffffffffffffffffffffffffff161480610ae35750610ae281610add6127b2565b61211e565b5b610b22576040517f08c379a0000000000000000000000000000000000000000000000000000000008152600401610b19906144d7565b60405180910390fd5b610b2c83836127ba565b505050565b600a81805160208101820180518482526020830160208501208183528095505050505050600091509050806000015490806001018054610b70906143a2565b80601f0160208091040260200160405190810160405280929190818152602001828054610b9c906143a2565b8015610be95780601f10610bbe57610100808354040283529160200191610be9565b820191906000526020600020905b815481529060010190602001808311610bcc57829003601f168201915b505050505090806002018054610bfe906143a2565b80601f0160208091040260200160405190810160405280929190818152602001828054610c2a906143a2565b8015610c775780601f10610c4c57610100808354040283529160200191610c77565b820191906000526020600020905b815481529060010190602001808311610c5a57829003601f168201915b5050505050908060030160009054906101000a900473ffffffffffffffffffffffffffffffffffffffff16908060040154905085565b610cb5613602565b600a8383604051610cc7929190614527565b90815260200160405180910390206040518060a001604052908160008201548152602001600182018054610cfa906143a2565b80601f0160208091040260200160405190810160405280929190818152602001828054610d26906143a2565b8015610d735780601f10610d4857610100808354040283529160200191610d73565b820191906000526020600020905b815481529060010190602001808311610d5657829003601f168201915b50505050508152602001600282018054610d8c906143a2565b80601f0160208091040260200160405190810160405280929190818152602001828054610db8906143a2565b8015610e055780601f10610dda57610100808354040283529160200191610e05565b820191906000526020600020905b815481529060010190602001808311610de857829003601f168201915b505050505081526020016003820160009054906101000a900473ffffffffffffffffffffffffffffffffffffffff1673ffffffffffffffffffffffffffffffffffffffff1673ffffffffffffffffffffffffffffffffffffffff168152602001600482015481525050905092915050565b600c818051602081018201805184825260208301602085012081835280955050505050506000915054906101000a900460ff1681565b610ebd610eb76127b2565b82612873565b610efc576040517f08c379a0000000000000000000000000000000000000000000000000000000008152600401610ef3906145b2565b60405180910390fd5b610f07838383612908565b505050565b610f2783838360405180602001604052806000815250611ede565b505050565b6000806002600084815260200190815260200160002060009054906101000a900473ffffffffffffffffffffffffffffffffffffffff169050600073ffffffffffffffffffffffffffffffffffffffff168173ffffffffffffffffffffffffffffffffffffffff1603610fd4576040517f08c379a0000000000000000000000000000000000000000000000000000000008152600401610fcb9061461e565b60405180910390fd5b80915050919050565b60008073ffffffffffffffffffffffffffffffffffffffff168273ffffffffffffffffffffffffffffffffffffffff160361104d576040517f08c379a0000000000000000000000000000000000000000000000000000000008152600401611044906146b0565b60405180910390fd5b600360008373ffffffffffffffffffffffffffffffffffffffff1673ffffffffffffffffffffffffffffffffffffffff168152602001908152602001600020549050919050565b600b86866040516110a6929190614527565b908152602001604051809103902060009054906101000a900460ff1615611102576040517f08c379a00000000000000000000000000000000000000000000000000000000081526004016110f99061471c565b60405180910390fd5b61110e82600754612b6e565b60086040518060a00160405280600754815260200188888080601f016020809104026020016040519081016040528093929190818152602001838380828437600081840152601f19601f82011690508083019250505050505050815260200186868080601f016020809104026020016040519081016040528093929190818152602001838380828437600081840152601f19601f8201169050808301925050505050505081526020018473ffffffffffffffffffffffffffffffffffffffff168152602001838152509080600181540180825580915050600190039060005260206000209060050201600090919091909150600082015181600001556020820151816001019080519060200190611226929190613647565b506040820151816002019080519060200190611243929190613647565b5060608201518160030160006101000a81548173ffffffffffffffffffffffffffffffffffffffff021916908373ffffffffffffffffffffffffffffffffffffffff160217905550608082015181600401555050600960008373ffffffffffffffffffffffffffffffffffffffff1673ffffffffffffffffffffffffffffffffffffffff1681526020019081526020016000206040518060a00160405280600754815260200188888080601f016020809104026020016040519081016040528093929190818152602001838380828437600081840152601f19601f82011690508083019250505050505050815260200186868080601f016020809104026020016040519081016040528093929190818152602001838380828437600081840152601f19601f8201169050808301925050505050505081526020018473ffffffffffffffffffffffffffffffffffffffff1681526020018381525090806001815401808255809150506001900390600052602060002090600502016000909190919091506000820151816000015560208201518160010190805190602001906113ec929190613647565b506040820151816002019080519060200190611409929190613647565b5060608201518160030160006101000a81548173ffffffffffffffffffffffffffffffffffffffff021916908373ffffffffffffffffffffffffffffffffffffffff1602179055506080820151816004015550506040518060a00160405280600754815260200187878080601f016020809104026020016040519081016040528093929190818152602001838380828437600081840152601f19601f82011690508083019250505050505050815260200185858080601f016020809104026020016040519081016040528093929190818152602001838380828437600081840152601f19601f8201169050808301925050505050505081526020018373ffffffffffffffffffffffffffffffffffffffff16815260200182815250600a8787604051611536929190614527565b908152602001604051809103902060008201518160000155602082015181600101908051906020019061156a929190613647565b506040820151816002019080519060200190611587929190613647565b5060608201518160030160006101000a81548173ffffffffffffffffffffffffffffffffffffffff021916908373ffffffffffffffffffffffffffffffffffffffff160217905550608082015181600401559050506001600b87876040516115f0929190614527565b908152602001604051809103902060006101000a81548160ff0219169083151502179055506000600c8787604051611629929190614527565b908152602001604051809103902060006101000a81548160ff021916908315150217905550600760008154809291906116619061476b565b9190505550505050505050565b600b818051602081018201805184825260208301602085012081835280955050505050506000915054906101000a900460ff1681565b600660009054906101000a900473ffffffffffffffffffffffffffffffffffffffff1681565b6060600180546116d9906143a2565b80601f0160208091040260200160405190810160405280929190818152602001828054611705906143a2565b80156117525780601f1061172757610100808354040283529160200191611752565b820191906000526020600020905b81548152906001019060200180831161173557829003601f168201915b5050505050905090565b6009602052816000526040600020818154811061177857600080fd5b9060005260206000209060050201600091509150508060000154908060010180546117a2906143a2565b80601f01602080910402602001604051908101604052809291908181526020018280546117ce906143a2565b801561181b5780601f106117f05761010080835404028352916020019161181b565b820191906000526020600020905b8154815290600101906020018083116117fe57829003601f168201915b505050505090806002018054611830906143a2565b80601f016020809104026020016040519081016040528092919081815260200182805461185c906143a2565b80156118a95780601f1061187e576101008083540402835291602001916118a9565b820191906000526020600020905b81548152906001019060200180831161188c57829003601f168201915b5050505050908060030160009054906101000a900473ffffffffffffffffffffffffffffffffffffffff16908060040154905085565b6000600b84846040516118f3929190614527565b908152602001604051809103902060009054906101000a900460ff1661194e576040517f08c379a0000000000000000000000000000000000000000000000000000000008152600401611945906147ff565b60405180910390fd5b600c8484604051611960929190614527565b908152602001604051809103902060009054906101000a900460ff16156119bc576040517f08c379a00000000000000000000000000000000000000000000000000000000081526004016119b39061486b565b60405180910390fd5b60006119c88585610cad565b90503373ffffffffffffffffffffffffffffffffffffffff16816060015173ffffffffffffffffffffffffffffffffffffffff1614611a3c576040517f08c379a0000000000000000000000000000000000000000000000000000000008152600401611a33906148d7565b60405180910390fd5b4281608001511115611d1957611a5733848360000151612908565b600960003373ffffffffffffffffffffffffffffffffffffffff1673ffffffffffffffffffffffffffffffffffffffff1681526020019081526020016000206000611aa291906136cd565b60006040518060a001604052808360000151815260200183602001518152602001836040015181526020018573ffffffffffffffffffffffffffffffffffffffff1681526020018360800151815250905083600a8787604051611b06929190614527565b908152602001604051809103902060030160006101000a81548173ffffffffffffffffffffffffffffffffffffffff021916908373ffffffffffffffffffffffffffffffffffffffff160217905550600960008573ffffffffffffffffffffffffffffffffffffffff1673ffffffffffffffffffffffffffffffffffffffff168152602001908152602001600020819080600181540180825580915050600190039060005260206000209060050201600090919091909150600082015181600001556020820151816001019080519060200190611be4929190613647565b506040820151816002019080519060200190611c01929190613647565b5060608201518160030160006101000a81548173ffffffffffffffffffffffffffffffffffffffff021916908373ffffffffffffffffffffffffffffffffffffffff16021790555060808201518160040155505060005b600880549050811015611d0d57826000015160088281548110611c7e57611c7d6148f7565b5b90600052602060002090600502016000015403611cfa578460088281548110611caa57611ca96148f7565b5b906000526020600020906005020160030160006101000a81548173ffffffffffffffffffffffffffffffffffffffff021916908373ffffffffffffffffffffffffffffffffffffffff1602179055505b8080611d059061476b565b915050611c58565b50600192505050611ec1565b611d268160000151612b8c565b600960003373ffffffffffffffffffffffffffffffffffffffff1673ffffffffffffffffffffffffffffffffffffffff1681526020019081526020016000206000611d7191906136cd565b6000600b8686604051611d85929190614527565b908152602001604051809103902060006101000a81548160ff0219169083151502179055506001600c8686604051611dbe929190614527565b908152602001604051809103902060006101000a81548160ff021916908315150217905550600a8585604051611df5929190614527565b9081526020016040518091039020600080820160009055600182016000611e1c91906136f1565b600282016000611e2c91906136f1565b6003820160006101000a81549073ffffffffffffffffffffffffffffffffffffffff02191690556004820160009055505060005b600880549050811015611eba57816000015160088281548110611e8657611e856148f7565b5b90600052602060002090600502016000015403611ea757611ea681612ca9565b5b8080611eb29061476b565b915050611e60565b5060009150505b9392505050565b611eda611ed36127b2565b8383612e6f565b5050565b611eef611ee96127b2565b83612873565b611f2e576040517f08c379a0000000000000000000000000000000000000000000000000000000008152600401611f25906145b2565b60405180910390fd5b611f3a84848484612fdb565b50505050565b6060611f4b82612767565b6000611f55613037565b90506000815111611f755760405180602001604052806000815250611fa0565b80611f7f8461304e565b604051602001611f90929190614957565b6040516020818303038152906040525b915050919050565b60088181548110611fb857600080fd5b9060005260206000209060050201600091509050806000015490806001018054611fe1906143a2565b80601f016020809104026020016040519081016040528092919081815260200182805461200d906143a2565b801561205a5780601f1061202f5761010080835404028352916020019161205a565b820191906000526020600020905b81548152906001019060200180831161203d57829003601f168201915b50505050509080600201805461206f906143a2565b80601f016020809104026020016040519081016040528092919081815260200182805461209b906143a2565b80156120e85780601f106120bd576101008083540402835291602001916120e8565b820191906000526020600020905b8154815290600101906020018083116120cb57829003601f168201915b5050505050908060030160009054906101000a900473ffffffffffffffffffffffffffffffffffffffff16908060040154905085565b6000600560008473ffffffffffffffffffffffffffffffffffffffff1673ffffffffffffffffffffffffffffffffffffffff16815260200190815260200160002060008373ffffffffffffffffffffffffffffffffffffffff1673ffffffffffffffffffffffffffffffffffffffff16815260200190815260200160002060009054906101000a900460ff16905092915050565b6000600b83836040516121c6929190614527565b908152602001604051809103902060009054906101000a900460ff16612221576040517f08c379a0000000000000000000000000000000000000000000000000000000008152600401612218906147ff565b60405180910390fd5b600c8383604051612233929190614527565b908152602001604051809103902060009054906101000a900460ff161561228f576040517f08c379a00000000000000000000000000000000000000000000000000000000081526004016122869061486b565b60405180910390fd5b600061229b8484610cad565b90503373ffffffffffffffffffffffffffffffffffffffff16816060015173ffffffffffffffffffffffffffffffffffffffff161461230f576040517f08c379a0000000000000000000000000000000000000000000000000000000008152600401612306906148d7565b60405180910390fd5b61231c8160000151612b8c565b600960003373ffffffffffffffffffffffffffffffffffffffff1673ffffffffffffffffffffffffffffffffffffffff168152602001908152602001600020600061236791906136cd565b6000600b858560405161237b929190614527565b908152602001604051809103902060006101000a81548160ff0219169083151502179055506001600c85856040516123b4929190614527565b908152602001604051809103902060006101000a81548160ff021916908315150217905550600a84846040516123eb929190614527565b908152602001604051809103902060008082016000905560018201600061241291906136f1565b60028201600061242291906136f1565b6003820160006101000a81549073ffffffffffffffffffffffffffffffffffffffff02191690556004820160009055505060005b6008805490508110156124b05781600001516008828154811061247c5761247b6148f7565b5b9060005260206000209060050201600001540361249d5761249c81612ca9565b5b80806124a89061476b565b915050612456565b5042816080015111156124c75760019150506124cd565b60009150505b92915050565b6060600960003373ffffffffffffffffffffffffffffffffffffffff1673ffffffffffffffffffffffffffffffffffffffff168152602001908152602001600020805480602002602001604051908101604052809291908181526020016000905b828210156126f457838290600052602060002090600502016040518060a001604052908160008201548152602001600182018054612571906143a2565b80601f016020809104026020016040519081016040528092919081815260200182805461259d906143a2565b80156125ea5780601f106125bf576101008083540402835291602001916125ea565b820191906000526020600020905b8154815290600101906020018083116125cd57829003601f168201915b50505050508152602001600282018054612603906143a2565b80601f016020809104026020016040519081016040528092919081815260200182805461262f906143a2565b801561267c5780601f106126515761010080835404028352916020019161267c565b820191906000526020600020905b81548152906001019060200180831161265f57829003601f168201915b505050505081526020016003820160009054906101000a900473ffffffffffffffffffffffffffffffffffffffff1673ffffffffffffffffffffffffffffffffffffffff1673ffffffffffffffffffffffffffffffffffffffff16815260200160048201548152505081526020019060010190612534565b50505050905090565b60007f01ffc9a7000000000000000000000000000000000000000000000000000000007bffffffffffffffffffffffffffffffffffffffffffffffffffffffff1916827bffffffffffffffffffffffffffffffffffffffffffffffffffffffff1916149050919050565b612770816131ae565b6127af576040517f08c379a00000000000000000000000000000000000000000000000000000000081526004016127a69061461e565b60405180910390fd5b50565b600033905090565b816004600083815260200190815260200160002060006101000a81548173ffffffffffffffffffffffffffffffffffffffff021916908373ffffffffffffffffffffffffffffffffffffffff160217905550808273ffffffffffffffffffffffffffffffffffffffff1661282d83610f2c565b73ffffffffffffffffffffffffffffffffffffffff167f8c5be1e5ebec7d5bd14f71427d1e84f3dd0314c0f7b2291e5b200ac8c7c3b92560405160405180910390a45050565b60008061287f83610f2c565b90508073ffffffffffffffffffffffffffffffffffffffff168473ffffffffffffffffffffffffffffffffffffffff1614806128c157506128c0818561211e565b5b806128ff57508373ffffffffffffffffffffffffffffffffffffffff166128e7846109d4565b73ffffffffffffffffffffffffffffffffffffffff16145b91505092915050565b8273ffffffffffffffffffffffffffffffffffffffff1661292882610f2c565b73ffffffffffffffffffffffffffffffffffffffff161461297e576040517f08c379a0000000000000000000000000000000000000000000000000000000008152600401612975906149ed565b60405180910390fd5b600073ffffffffffffffffffffffffffffffffffffffff168273ffffffffffffffffffffffffffffffffffffffff16036129ed576040517f08c379a00000000000000000000000000000000000000000000000000000000081526004016129e490614a7f565b60405180910390fd5b6129f883838361321a565b612a036000826127ba565b6001600360008573ffffffffffffffffffffffffffffffffffffffff1673ffffffffffffffffffffffffffffffffffffffff1681526020019081526020016000206000828254612a539190614a9f565b925050819055506001600360008473ffffffffffffffffffffffffffffffffffffffff1673ffffffffffffffffffffffffffffffffffffffff1681526020019081526020016000206000828254612aaa9190614ad3565b92505081905550816002600083815260200190815260200160002060006101000a81548173ffffffffffffffffffffffffffffffffffffffff021916908373ffffffffffffffffffffffffffffffffffffffff160217905550808273ffffffffffffffffffffffffffffffffffffffff168473ffffffffffffffffffffffffffffffffffffffff167fddf252ad1be2c89b69c2b068fc378daa952ba7f163c4a11628f55a4df523b3ef60405160405180910390a4612b6983838361321f565b505050565b612b88828260405180602001604052806000815250613224565b5050565b6000612b9782610f2c565b9050612ba58160008461321a565b612bb06000836127ba565b6001600360008373ffffffffffffffffffffffffffffffffffffffff1673ffffffffffffffffffffffffffffffffffffffff1681526020019081526020016000206000828254612c009190614a9f565b925050819055506002600083815260200190815260200160002060006101000a81549073ffffffffffffffffffffffffffffffffffffffff021916905581600073ffffffffffffffffffffffffffffffffffffffff168273ffffffffffffffffffffffffffffffffffffffff167fddf252ad1be2c89b69c2b068fc378daa952ba7f163c4a11628f55a4df523b3ef60405160405180910390a4612ca58160008461321f565b5050565b60008190505b6001600880549050612cc19190614a9f565b811015612de9576008600182612cd79190614ad3565b81548110612ce857612ce76148f7565b5b906000526020600020906005020160088281548110612d0a57612d096148f7565b5b9060005260206000209060050201600082015481600001556001820181600101908054612d36906143a2565b612d41929190613731565b506002820181600201908054612d56906143a2565b612d61929190613731565b506003820160009054906101000a900473ffffffffffffffffffffffffffffffffffffffff168160030160006101000a81548173ffffffffffffffffffffffffffffffffffffffff021916908373ffffffffffffffffffffffffffffffffffffffff160217905550600482015481600401559050508080612de19061476b565b915050612caf565b506008805480612dfc57612dfb614b29565b5b6001900381819060005260206000209060050201600080820160009055600182016000612e2991906136f1565b600282016000612e3991906136f1565b6003820160006101000a81549073ffffffffffffffffffffffffffffffffffffffff021916905560048201600090555050905550565b8173ffffffffffffffffffffffffffffffffffffffff168373ffffffffffffffffffffffffffffffffffffffff1603612edd576040517f08c379a0000000000000000000000000000000000000000000000000000000008152600401612ed490614ba4565b60405180910390fd5b80600560008573ffffffffffffffffffffffffffffffffffffffff1673ffffffffffffffffffffffffffffffffffffffff16815260200190815260200160002060008473ffffffffffffffffffffffffffffffffffffffff1673ffffffffffffffffffffffffffffffffffffffff16815260200190815260200160002060006101000a81548160ff0219169083151502179055508173ffffffffffffffffffffffffffffffffffffffff168373ffffffffffffffffffffffffffffffffffffffff167f17307eab39ab6107e8899845ad3d59bd9653f200f220920489ca2b5937696c3183604051612fce91906138fd565b60405180910390a3505050565b612fe6848484612908565b612ff28484848461327f565b613031576040517f08c379a000000000000000000000000000000000000000000000000000000000815260040161302890614c36565b60405180910390fd5b50505050565b606060405180602001604052806000815250905090565b606060008203613095576040518060400160405280600181526020017f300000000000000000000000000000000000000000000000000000000000000081525090506131a9565b600082905060005b600082146130c75780806130b09061476b565b915050600a826130c09190614c85565b915061309d565b60008167ffffffffffffffff8111156130e3576130e2613cd1565b5b6040519080825280601f01601f1916602001820160405280156131155781602001600182028036833780820191505090505b5090505b600085146131a25760018261312e9190614a9f565b9150600a8561313d9190614cb6565b60306131499190614ad3565b60f81b81838151811061315f5761315e6148f7565b5b60200101907effffffffffffffffffffffffffffffffffffffffffffffffffffffffffffff1916908160001a905350600a8561319b9190614c85565b9450613119565b8093505050505b919050565b60008073ffffffffffffffffffffffffffffffffffffffff166002600084815260200190815260200160002060009054906101000a900473ffffffffffffffffffffffffffffffffffffffff1673ffffffffffffffffffffffffffffffffffffffff1614159050919050565b505050565b505050565b61322e8383613406565b61323b600084848461327f565b61327a576040517f08c379a000000000000000000000000000000000000000000000000000000000815260040161327190614c36565b60405180910390fd5b505050565b60006132a08473ffffffffffffffffffffffffffffffffffffffff166135df565b156133f9578373ffffffffffffffffffffffffffffffffffffffff1663150b7a026132c96127b2565b8786866040518563ffffffff1660e01b81526004016132eb9493929190614d3c565b6020604051808303816000875af192505050801561332757506040513d601f19601f820116820180604052508101906133249190614d9d565b60015b6133a9573d8060008114613357576040519150601f19603f3d011682016040523d82523d6000602084013e61335c565b606091505b5060008151036133a1576040517f08c379a000000000000000000000000000000000000000000000000000000000815260040161339890614c36565b60405180910390fd5b805181602001fd5b63150b7a0260e01b7bffffffffffffffffffffffffffffffffffffffffffffffffffffffff1916817bffffffffffffffffffffffffffffffffffffffffffffffffffffffff1916149150506133fe565b600190505b949350505050565b600073ffffffffffffffffffffffffffffffffffffffff168273ffffffffffffffffffffffffffffffffffffffff1603613475576040517f08c379a000000000000000000000000000000000000000000000000000000000815260040161346c90614e16565b60405180910390fd5b61347e816131ae565b156134be576040517f08c379a00000000000000000000000000000000000000000000000000000000081526004016134b590614e82565b60405180910390fd5b6134ca6000838361321a565b6001600360008473ffffffffffffffffffffffffffffffffffffffff1673ffffffffffffffffffffffffffffffffffffffff168152602001908152602001600020600082825461351a9190614ad3565b92505081905550816002600083815260200190815260200160002060006101000a81548173ffffffffffffffffffffffffffffffffffffffff021916908373ffffffffffffffffffffffffffffffffffffffff160217905550808273ffffffffffffffffffffffffffffffffffffffff16600073ffffffffffffffffffffffffffffffffffffffff167fddf252ad1be2c89b69c2b068fc378daa952ba7f163c4a11628f55a4df523b3ef60405160405180910390a46135db6000838361321f565b5050565b6000808273ffffffffffffffffffffffffffffffffffffffff163b119050919050565b6040518060a00160405280600081526020016060815260200160608152602001600073ffffffffffffffffffffffffffffffffffffffff168152602001600081525090565b828054613653906143a2565b90600052602060002090601f01602090048101928261367557600085556136bc565b82601f1061368e57805160ff19168380011785556136bc565b828001600101855582156136bc579182015b828111156136bb5782518255916020019190600101906136a0565b5b5090506136c991906137be565b5090565b50805460008255600502906000526020600020908101906136ee91906137db565b50565b5080546136fd906143a2565b6000825580601f1061370f575061372e565b601f01602090049060005260206000209081019061372d91906137be565b5b50565b82805461373d906143a2565b90600052602060002090601f01602090048101928261375f57600085556137ad565b82601f1061377057805485556137ad565b828001600101855582156137ad57600052602060002091601f016020900482015b828111156137ac578254825591600101919060010190613791565b5b5090506137ba91906137be565b5090565b5b808211156137d75760008160009055506001016137bf565b5090565b5b80821115613845576000808201600090556001820160006137fd91906136f1565b60028201600061380d91906136f1565b6003820160006101000a81549073ffffffffffffffffffffffffffffffffffffffff02191690556004820160009055506005016137dc565b5090565b6000604051905090565b600080fd5b600080fd5b60007fffffffff0000000000000000000000000000000000000000000000000000000082169050919050565b6138928161385d565b811461389d57600080fd5b50565b6000813590506138af81613889565b92915050565b6000602082840312156138cb576138ca613853565b5b60006138d9848285016138a0565b91505092915050565b60008115159050919050565b6138f7816138e2565b82525050565b600060208201905061391260008301846138ee565b92915050565b600081519050919050565b600082825260208201905092915050565b6000819050602082019050919050565b6000819050919050565b61395781613944565b82525050565b600081519050919050565b600082825260208201905092915050565b60005b8381101561399757808201518184015260208101905061397c565b838111156139a6576000848401525b50505050565b6000601f19601f8301169050919050565b60006139c88261395d565b6139d28185613968565b93506139e2818560208601613979565b6139eb816139ac565b840191505092915050565b600073ffffffffffffffffffffffffffffffffffffffff82169050919050565b6000613a21826139f6565b9050919050565b613a3181613a16565b82525050565b600060a083016000830151613a4f600086018261394e565b5060208301518482036020860152613a6782826139bd565b91505060408301518482036040860152613a8182826139bd565b9150506060830151613a966060860182613a28565b506080830151613aa9608086018261394e565b508091505092915050565b6000613ac08383613a37565b905092915050565b6000602082019050919050565b6000613ae082613918565b613aea8185613923565b935083602082028501613afc85613934565b8060005b85811015613b385784840389528151613b198582613ab4565b9450613b2483613ac8565b925060208a01995050600181019050613b00565b50829750879550505050505092915050565b60006020820190508181036000830152613b648184613ad5565b905092915050565b600082825260208201905092915050565b6000613b888261395d565b613b928185613b6c565b9350613ba2818560208601613979565b613bab816139ac565b840191505092915050565b60006020820190508181036000830152613bd08184613b7d565b905092915050565b613be181613944565b8114613bec57600080fd5b50565b600081359050613bfe81613bd8565b92915050565b600060208284031215613c1a57613c19613853565b5b6000613c2884828501613bef565b91505092915050565b613c3a81613a16565b82525050565b6000602082019050613c556000830184613c31565b92915050565b613c6481613a16565b8114613c6f57600080fd5b50565b600081359050613c8181613c5b565b92915050565b60008060408385031215613c9e57613c9d613853565b5b6000613cac85828601613c72565b9250506020613cbd85828601613bef565b9150509250929050565b600080fd5b600080fd5b7f4e487b7100000000000000000000000000000000000000000000000000000000600052604160045260246000fd5b613d09826139ac565b810181811067ffffffffffffffff82111715613d2857613d27613cd1565b5b80604052505050565b6000613d3b613849565b9050613d478282613d00565b919050565b600067ffffffffffffffff821115613d6757613d66613cd1565b5b613d70826139ac565b9050602081019050919050565b82818337600083830152505050565b6000613d9f613d9a84613d4c565b613d31565b905082815260208101848484011115613dbb57613dba613ccc565b5b613dc6848285613d7d565b509392505050565b600082601f830112613de357613de2613cc7565b5b8135613df3848260208601613d8c565b91505092915050565b600060208284031215613e1257613e11613853565b5b600082013567ffffffffffffffff811115613e3057613e2f613858565b5b613e3c84828501613dce565b91505092915050565b613e4e81613944565b82525050565b600060a082019050613e696000830188613e45565b8181036020830152613e7b8187613b7d565b90508181036040830152613e8f8186613b7d565b9050613e9e6060830185613c31565b613eab6080830184613e45565b9695505050505050565b600080fd5b600080fd5b60008083601f840112613ed557613ed4613cc7565b5b8235905067ffffffffffffffff811115613ef257613ef1613eb5565b5b602083019150836001820283011115613f0e57613f0d613eba565b5b9250929050565b60008060208385031215613f2c57613f2b613853565b5b600083013567ffffffffffffffff811115613f4a57613f49613858565b5b613f5685828601613ebf565b92509250509250929050565b600060a083016000830151613f7a600086018261394e565b5060208301518482036020860152613f9282826139bd565b91505060408301518482036040860152613fac82826139bd565b9150506060830151613fc16060860182613a28565b506080830151613fd4608086018261394e565b508091505092915050565b60006020820190508181036000830152613ff98184613f62565b905092915050565b60008060006060848603121561401a57614019613853565b5b600061402886828701613c72565b935050602061403986828701613c72565b925050604061404a86828701613bef565b9150509250925092565b60006020828403121561406a57614069613853565b5b600061407884828501613c72565b91505092915050565b60006020820190506140966000830184613e45565b92915050565b600080600080600080608087890312156140b9576140b8613853565b5b600087013567ffffffffffffffff8111156140d7576140d6613858565b5b6140e389828a01613ebf565b9650965050602087013567ffffffffffffffff81111561410657614105613858565b5b61411289828a01613ebf565b9450945050604061412589828a01613c72565b925050606061413689828a01613bef565b9150509295509295509295565b60008060006040848603121561415c5761415b613853565b5b600084013567ffffffffffffffff81111561417a57614179613858565b5b61418686828701613ebf565b9350935050602061419986828701613c72565b9150509250925092565b6141ac816138e2565b81146141b757600080fd5b50565b6000813590506141c9816141a3565b92915050565b600080604083850312156141e6576141e5613853565b5b60006141f485828601613c72565b9250506020614205858286016141ba565b9150509250929050565b600067ffffffffffffffff82111561422a57614229613cd1565b5b614233826139ac565b9050602081019050919050565b600061425361424e8461420f565b613d31565b90508281526020810184848401111561426f5761426e613ccc565b5b61427a848285613d7d565b509392505050565b600082601f83011261429757614296613cc7565b5b81356142a7848260208601614240565b91505092915050565b600080600080608085870312156142ca576142c9613853565b5b60006142d887828801613c72565b94505060206142e987828801613c72565b93505060406142fa87828801613bef565b925050606085013567ffffffffffffffff81111561431b5761431a613858565b5b61432787828801614282565b91505092959194509250565b6000806040838503121561434a57614349613853565b5b600061435885828601613c72565b925050602061436985828601613c72565b9150509250929050565b7f4e487b7100000000000000000000000000000000000000000000000000000000600052602260045260246000fd5b600060028204905060018216806143ba57607f821691505b6020821081036143cd576143cc614373565b5b50919050565b7f4552433732313a20617070726f76616c20746f2063757272656e74206f776e6560008201527f7200000000000000000000000000000000000000000000000000000000000000602082015250565b600061442f602183613b6c565b915061443a826143d3565b604082019050919050565b6000602082019050818103600083015261445e81614422565b9050919050565b7f4552433732313a20617070726f76652063616c6c6572206973206e6f7420746f60008201527f6b656e206f776e6572206e6f7220617070726f76656420666f7220616c6c0000602082015250565b60006144c1603e83613b6c565b91506144cc82614465565b604082019050919050565b600060208201905081810360008301526144f0816144b4565b9050919050565b600081905092915050565b600061450e83856144f7565b935061451b838584613d7d565b82840190509392505050565b6000614534828486614502565b91508190509392505050565b7f4552433732313a2063616c6c6572206973206e6f7420746f6b656e206f776e6560008201527f72206e6f7220617070726f766564000000000000000000000000000000000000602082015250565b600061459c602e83613b6c565b91506145a782614540565b604082019050919050565b600060208201905081810360008301526145cb8161458f565b9050919050565b7f4552433732313a20696e76616c696420746f6b656e2049440000000000000000600082015250565b6000614608601883613b6c565b9150614613826145d2565b602082019050919050565b60006020820190508181036000830152614637816145fb565b9050919050565b7f4552433732313a2061646472657373207a65726f206973206e6f74206120766160008201527f6c6964206f776e65720000000000000000000000000000000000000000000000602082015250565b600061469a602983613b6c565b91506146a58261463e565b604082019050919050565b600060208201905081810360008301526146c98161468d565b9050919050565b7f50726f6475637420616c72656164792065786973747300000000000000000000600082015250565b6000614706601683613b6c565b9150614711826146d0565b602082019050919050565b60006020820190508181036000830152614735816146f9565b9050919050565b7f4e487b7100000000000000000000000000000000000000000000000000000000600052601160045260246000fd5b600061477682613944565b91507fffffffffffffffffffffffffffffffffffffffffffffffffffffffffffffffff82036147a8576147a761473c565b5b600182019050919050565b7f50726f6475637420646f206e6f74206578697374730000000000000000000000600082015250565b60006147e9601583613b6c565b91506147f4826147b3565b602082019050919050565b60006020820190508181036000830152614818816147dc565b9050919050565b7f50726f6475637420697320616c72656164792065787069726564000000000000600082015250565b6000614855601a83613b6c565b91506148608261481f565b602082019050919050565b6000602082019050818103600083015261488481614848565b9050919050565b7f596f7520646f206e6f74206f776e20746869732070726f647563740000000000600082015250565b60006148c1601b83613b6c565b91506148cc8261488b565b602082019050919050565b600060208201905081810360008301526148f0816148b4565b9050919050565b7f4e487b7100000000000000000000000000000000000000000000000000000000600052603260045260246000fd5b60006149318261395d565b61493b81856144f7565b935061494b818560208601613979565b80840191505092915050565b60006149638285614926565b915061496f8284614926565b91508190509392505050565b7f4552433732313a207472616e736665722066726f6d20696e636f72726563742060008201527f6f776e6572000000000000000000000000000000000000000000000000000000602082015250565b60006149d7602583613b6c565b91506149e28261497b565b604082019050919050565b60006020820190508181036000830152614a06816149ca565b9050919050565b7f4552433732313a207472616e7366657220746f20746865207a65726f2061646460008201527f7265737300000000000000000000000000000000000000000000000000000000602082015250565b6000614a69602483613b6c565b9150614a7482614a0d565b604082019050919050565b60006020820190508181036000830152614a9881614a5c565b9050919050565b6000614aaa82613944565b9150614ab583613944565b925082821015614ac857614ac761473c565b5b828203905092915050565b6000614ade82613944565b9150614ae983613944565b9250827fffffffffffffffffffffffffffffffffffffffffffffffffffffffffffffffff03821115614b1e57614b1d61473c565b5b828201905092915050565b7f4e487b7100000000000000000000000000000000000000000000000000000000600052603160045260246000fd5b7f4552433732313a20617070726f766520746f2063616c6c657200000000000000600082015250565b6000614b8e601983613b6c565b9150614b9982614b58565b602082019050919050565b60006020820190508181036000830152614bbd81614b81565b9050919050565b7f4552433732313a207472616e7366657220746f206e6f6e20455243373231526560008201527f63656976657220696d706c656d656e7465720000000000000000000000000000602082015250565b6000614c20603283613b6c565b9150614c2b82614bc4565b604082019050919050565b60006020820190508181036000830152614c4f81614c13565b9050919050565b7f4e487b7100000000000000000000000000000000000000000000000000000000600052601260045260246000fd5b6000614c9082613944565b9150614c9b83613944565b925082614cab57614caa614c56565b5b828204905092915050565b6000614cc182613944565b9150614ccc83613944565b925082614cdc57614cdb614c56565b5b828206905092915050565b600081519050919050565b600082825260208201905092915050565b6000614d0e82614ce7565b614d188185614cf2565b9350614d28818560208601613979565b614d31816139ac565b840191505092915050565b6000608082019050614d516000830187613c31565b614d5e6020830186613c31565b614d6b6040830185613e45565b8181036060830152614d7d8184614d03565b905095945050505050565b600081519050614d9781613889565b92915050565b600060208284031215614db357614db2613853565b5b6000614dc184828501614d88565b91505092915050565b7f4552433732313a206d696e7420746f20746865207a65726f2061646472657373600082015250565b6000614e00602083613b6c565b9150614e0b82614dca565b602082019050919050565b60006020820190508181036000830152614e2f81614df3565b9050919050565b7f4552433732313a20746f6b656e20616c7265616479206d696e74656400000000600082015250565b6000614e6c601c83613b6c565b9150614e7782614e36565b602082019050919050565b60006020820190508181036000830152614e9b81614e5f565b905091905056fea264697066735822122064dc86ee8929d04c88e77f2c6c943b94a98d2f65648c86957daa19935123f3a164736f6c634300080d0033",
  "immutableReferences": {},
  "source": "// SPDX-License-Identifier: MIT\npragma solidity ^0.8.11;\n\nimport \"@openzeppelin/contracts/token/ERC721/ERC721.sol\";\n\ncontract Flipkart is ERC721 {\n    address public owner;\n    uint tokenId = 1;\n\n    struct Product{\n        uint tokenId;\n        string productId;\n        string productName;\n        address owner;\n        uint256 expiryDate;\n    }\n\n    Product[] public allProducts;\n\n    mapping(address => Product[]) public productAddress; // Maps products with their owner address\n    mapping(string => Product) public productDetails; // Maps product details with product ID\n    mapping(string => bool) public productExists; // Product already exists or not\n    mapping(string => bool) public productExpire; // Product is expire or not\n\n\n\n    constructor() ERC721(\"FlipkartToken\", \"FLP \") {\n        owner = msg.sender;\n    }\n\n    function getAllProducts() public view returns (Product[] memory){\n        return allProducts;\n    }\n\n    function getMyProducts() public view returns (Product[] memory){\n        return productAddress[msg.sender];\n\n    }\n\n    function createWarranty(string calldata _productId, string calldata _productName, address ownerAddress, uint256 expiryDate) public payable {\n\n        require(!productExists[_productId], \"Product already exists\");\n        _safeMint(ownerAddress, tokenId);\n\n\n        allProducts.push(Product(tokenId, _productId,  _productName, ownerAddress, expiryDate));\n\n        productAddress[ownerAddress].push(Product(tokenId, _productId,  _productName, ownerAddress, expiryDate));\n\n        productDetails[_productId] = Product(tokenId, _productId,  _productName, ownerAddress, expiryDate);\n\n        productExists[_productId] = true;\n        productExpire[_productId] = false;\n\n        tokenId++;\n\n    }\n\n    function claim(string calldata _productId) public payable returns(bool){\n\n        require(productExists[_productId], \"Product do not exists\");\n        require(!productExpire[_productId],\"Product is already expired\");\n\n        Product memory product = getProductDetails(_productId);\n\n        require(product.owner == msg.sender,\"You do not own this product\");\n\n                _burn(product.tokenId);\n                delete productAddress[msg.sender];\n                productExists[_productId] = false;\n                productExpire[_productId] = true;\n                delete productDetails[_productId];\n\n                for(uint i=0 ; i<allProducts.length ; i++){\n                    if(allProducts[i].tokenId == product.tokenId){\n                        deleteProduct(i);\n                    }\n                }\n\n            if(product.expiryDate > block.timestamp){\n                return true;\n            }\n\n        return false;\n\n    }\n\n\n    function deleteProduct(uint index) private{\n        for (uint i = index; i<allProducts.length-1; i++){\n            allProducts[i] = allProducts[i+1];\n        }\n        allProducts.pop();\n    }\n\n\n    function getProductDetails(string calldata _productId) public view returns(Product memory){\n        return productDetails[_productId];\n    }\n\n\n    function transferWarranty(string calldata _productId, address receiverAddress) public payable returns(bool){\n\n        require(productExists[_productId], \"Product do not exists\");\n        require(!productExpire[_productId],\"Product is already expired\");\n\n        Product memory product = getProductDetails(_productId);       \n\n        require(product.owner == msg.sender, \"You do not own this product\"); \n\n        if(product.expiryDate > block.timestamp){\n    \n            _transfer(msg.sender, receiverAddress, product.tokenId);\n            delete productAddress[msg.sender];\n\n            Product memory newProduct = Product(product.tokenId,\n                                            product.productId,\n                                            product.productName,\n                                            receiverAddress,\n                                            product.expiryDate);\n\n            productDetails[_productId].owner = receiverAddress;\n            productAddress[receiverAddress].push(newProduct);\n            \n            for(uint i=0 ; i<allProducts.length ; i++){\n                if(allProducts[i].tokenId == product.tokenId){\n                        allProducts[i].owner = receiverAddress;\n                }\n            }\n\n            return true;\n\n        }\n        else{\n                _burn(product.tokenId);\n                delete productAddress[msg.sender];\n                productExists[_productId] = false;\n                productExpire[_productId] = true;\n                delete productDetails[_productId];\n\n                for(uint i=0 ; i<allProducts.length ; i++){\n                    if(allProducts[i].tokenId == product.tokenId){\n                        deleteProduct(i);\n                    }\n                }\n        }\n\n        return false ;\n    }\n\n}",
  "sourcePath": "C:\\Users\\Sandeep\\OneDrive\\Desktop\\BlockChain-Grid4.0\\src\\contracts\\Flipkart.sol",
  "compiler": {
    "name": "solc",
    "version": "0.8.13+commit.abaa5c0e.Emscripten.clang"
  },
  "schemaVersion": "3.4.7",
  "updatedAt": "2022-07-25T19:10:25.803Z",
  "networkType": "ethereum",
  "devdoc": {
    "kind": "dev",
    "methods": {
      "approve(address,uint256)": {
        "details": "See {IERC721-approve}."
      },
      "balanceOf(address)": {
        "details": "See {IERC721-balanceOf}."
      },
      "getApproved(uint256)": {
        "details": "See {IERC721-getApproved}."
      },
      "isApprovedForAll(address,address)": {
        "details": "See {IERC721-isApprovedForAll}."
      },
      "name()": {
        "details": "See {IERC721Metadata-name}."
      },
      "ownerOf(uint256)": {
        "details": "See {IERC721-ownerOf}."
      },
      "safeTransferFrom(address,address,uint256)": {
        "details": "See {IERC721-safeTransferFrom}."
      },
      "safeTransferFrom(address,address,uint256,bytes)": {
        "details": "See {IERC721-safeTransferFrom}."
      },
      "setApprovalForAll(address,bool)": {
        "details": "See {IERC721-setApprovalForAll}."
      },
      "supportsInterface(bytes4)": {
        "details": "See {IERC165-supportsInterface}."
      },
      "symbol()": {
        "details": "See {IERC721Metadata-symbol}."
      },
      "tokenURI(uint256)": {
        "details": "See {IERC721Metadata-tokenURI}."
      },
      "transferFrom(address,address,uint256)": {
        "details": "See {IERC721-transferFrom}."
      }
    },
    "version": 1
  },
  "userdoc": {
    "kind": "user",
    "methods": {},
    "version": 1
  }
}