{
  "contractName": "Flipkart",
  "abi": [
    {
      "inputs": [],
      "stateMutability": "nonpayable",
      "type": "constructor"
    },
    {
      "anonymous": false,
      "inputs": [
        {
          "indexed": true,
          "internalType": "address",
          "name": "owner",
          "type": "address"
        },
        {
          "indexed": true,
          "internalType": "address",
          "name": "approved",
          "type": "address"
        },
        {
          "indexed": true,
          "internalType": "uint256",
          "name": "tokenId",
          "type": "uint256"
        }
      ],
      "name": "Approval",
      "type": "event"
    },
    {
      "anonymous": false,
      "inputs": [
        {
          "indexed": true,
          "internalType": "address",
          "name": "owner",
          "type": "address"
        },
        {
          "indexed": true,
          "internalType": "address",
          "name": "operator",
          "type": "address"
        },
        {
          "indexed": false,
          "internalType": "bool",
          "name": "approved",
          "type": "bool"
        }
      ],
      "name": "ApprovalForAll",
      "type": "event"
    },
    {
      "anonymous": false,
      "inputs": [
        {
          "indexed": true,
          "internalType": "address",
          "name": "from",
          "type": "address"
        },
        {
          "indexed": true,
          "internalType": "address",
          "name": "to",
          "type": "address"
        },
        {
          "indexed": true,
          "internalType": "uint256",
          "name": "tokenId",
          "type": "uint256"
        }
      ],
      "name": "Transfer",
      "type": "event"
    },
    {
      "inputs": [
        {
          "internalType": "uint256",
          "name": "",
          "type": "uint256"
        }
      ],
      "name": "allProducts",
      "outputs": [
        {
          "internalType": "uint256",
          "name": "tokenId",
          "type": "uint256"
        },
        {
          "internalType": "string",
          "name": "productId",
          "type": "string"
        },
        {
          "internalType": "string",
          "name": "productName",
          "type": "string"
        },
        {
          "internalType": "address",
          "name": "owner",
          "type": "address"
        },
        {
          "internalType": "uint256",
          "name": "expiryDate",
          "type": "uint256"
        }
      ],
      "stateMutability": "view",
      "type": "function"
    },
    {
      "inputs": [
        {
          "internalType": "address",
          "name": "to",
          "type": "address"
        },
        {
          "internalType": "uint256",
          "name": "tokenId",
          "type": "uint256"
        }
      ],
      "name": "approve",
      "outputs": [],
      "stateMutability": "nonpayable",
      "type": "function"
    },
    {
      "inputs": [
        {
          "internalType": "address",
          "name": "owner",
          "type": "address"
        }
      ],
      "name": "balanceOf",
      "outputs": [
        {
          "internalType": "uint256",
          "name": "",
          "type": "uint256"
        }
      ],
      "stateMutability": "view",
      "type": "function"
    },
    {
      "inputs": [
        {
          "internalType": "uint256",
          "name": "tokenId",
          "type": "uint256"
        }
      ],
      "name": "getApproved",
      "outputs": [
        {
          "internalType": "address",
          "name": "",
          "type": "address"
        }
      ],
      "stateMutability": "view",
      "type": "function"
    },
    {
      "inputs": [
        {
          "internalType": "address",
          "name": "owner",
          "type": "address"
        },
        {
          "internalType": "address",
          "name": "operator",
          "type": "address"
        }
      ],
      "name": "isApprovedForAll",
      "outputs": [
        {
          "internalType": "bool",
          "name": "",
          "type": "bool"
        }
      ],
      "stateMutability": "view",
      "type": "function"
    },
    {
      "inputs": [],
      "name": "name",
      "outputs": [
        {
          "internalType": "string",
          "name": "",
          "type": "string"
        }
      ],
      "stateMutability": "view",
      "type": "function"
    },
    {
      "inputs": [],
      "name": "owner",
      "outputs": [
        {
          "internalType": "address",
          "name": "",
          "type": "address"
        }
      ],
      "stateMutability": "view",
      "type": "function"
    },
    {
      "inputs": [
        {
          "internalType": "uint256",
          "name": "tokenId",
          "type": "uint256"
        }
      ],
      "name": "ownerOf",
      "outputs": [
        {
          "internalType": "address",
          "name": "",
          "type": "address"
        }
      ],
      "stateMutability": "view",
      "type": "function"
    },
    {
      "inputs": [
        {
          "internalType": "address",
          "name": "",
          "type": "address"
        },
        {
          "internalType": "uint256",
          "name": "",
          "type": "uint256"
        }
      ],
      "name": "productAddress",
      "outputs": [
        {
          "internalType": "uint256",
          "name": "tokenId",
          "type": "uint256"
        },
        {
          "internalType": "string",
          "name": "productId",
          "type": "string"
        },
        {
          "internalType": "string",
          "name": "productName",
          "type": "string"
        },
        {
          "internalType": "address",
          "name": "owner",
          "type": "address"
        },
        {
          "internalType": "uint256",
          "name": "expiryDate",
          "type": "uint256"
        }
      ],
      "stateMutability": "view",
      "type": "function"
    },
    {
      "inputs": [
        {
          "internalType": "string",
          "name": "",
          "type": "string"
        }
      ],
      "name": "productDetails",
      "outputs": [
        {
          "internalType": "uint256",
          "name": "tokenId",
          "type": "uint256"
        },
        {
          "internalType": "string",
          "name": "productId",
          "type": "string"
        },
        {
          "internalType": "string",
          "name": "productName",
          "type": "string"
        },
        {
          "internalType": "address",
          "name": "owner",
          "type": "address"
        },
        {
          "internalType": "uint256",
          "name": "expiryDate",
          "type": "uint256"
        }
      ],
      "stateMutability": "view",
      "type": "function"
    },
    {
      "inputs": [
        {
          "internalType": "string",
          "name": "",
          "type": "string"
        }
      ],
      "name": "productExists",
      "outputs": [
        {
          "internalType": "bool",
          "name": "",
          "type": "bool"
        }
      ],
      "stateMutability": "view",
      "type": "function"
    },
    {
      "inputs": [
        {
          "internalType": "string",
          "name": "",
          "type": "string"
        }
      ],
      "name": "productExpire",
      "outputs": [
        {
          "internalType": "bool",
          "name": "",
          "type": "bool"
        }
      ],
      "stateMutability": "view",
      "type": "function"
    },
    {
      "inputs": [
        {
          "internalType": "address",
          "name": "from",
          "type": "address"
        },
        {
          "internalType": "address",
          "name": "to",
          "type": "address"
        },
        {
          "internalType": "uint256",
          "name": "tokenId",
          "type": "uint256"
        }
      ],
      "name": "safeTransferFrom",
      "outputs": [],
      "stateMutability": "nonpayable",
      "type": "function"
    },
    {
      "inputs": [
        {
          "internalType": "address",
          "name": "from",
          "type": "address"
        },
        {
          "internalType": "address",
          "name": "to",
          "type": "address"
        },
        {
          "internalType": "uint256",
          "name": "tokenId",
          "type": "uint256"
        },
        {
          "internalType": "bytes",
          "name": "data",
          "type": "bytes"
        }
      ],
      "name": "safeTransferFrom",
      "outputs": [],
      "stateMutability": "nonpayable",
      "type": "function"
    },
    {
      "inputs": [
        {
          "internalType": "address",
          "name": "operator",
          "type": "address"
        },
        {
          "internalType": "bool",
          "name": "approved",
          "type": "bool"
        }
      ],
      "name": "setApprovalForAll",
      "outputs": [],
      "stateMutability": "nonpayable",
      "type": "function"
    },
    {
      "inputs": [
        {
          "internalType": "bytes4",
          "name": "interfaceId",
          "type": "bytes4"
        }
      ],
      "name": "supportsInterface",
      "outputs": [
        {
          "internalType": "bool",
          "name": "",
          "type": "bool"
        }
      ],
      "stateMutability": "view",
      "type": "function"
    },
    {
      "inputs": [],
      "name": "symbol",
      "outputs": [
        {
          "internalType": "string",
          "name": "",
          "type": "string"
        }
      ],
      "stateMutability": "view",
      "type": "function"
    },
    {
      "inputs": [
        {
          "internalType": "uint256",
          "name": "tokenId",
          "type": "uint256"
        }
      ],
      "name": "tokenURI",
      "outputs": [
        {
          "internalType": "string",
          "name": "",
          "type": "string"
        }
      ],
      "stateMutability": "view",
      "type": "function"
    },
    {
      "inputs": [
        {
          "internalType": "address",
          "name": "from",
          "type": "address"
        },
        {
          "internalType": "address",
          "name": "to",
          "type": "address"
        },
        {
          "internalType": "uint256",
          "name": "tokenId",
          "type": "uint256"
        }
      ],
      "name": "transferFrom",
      "outputs": [],
      "stateMutability": "nonpayable",
      "type": "function"
    },
    {
      "inputs": [],
      "name": "getAllProducts",
      "outputs": [
        {
          "components": [
            {
              "internalType": "uint256",
              "name": "tokenId",
              "type": "uint256"
            },
            {
              "internalType": "string",
              "name": "productId",
              "type": "string"
            },
            {
              "internalType": "string",
              "name": "productName",
              "type": "string"
            },
            {
              "internalType": "address",
              "name": "owner",
              "type": "address"
            },
            {
              "internalType": "uint256",
              "name": "expiryDate",
              "type": "uint256"
            }
          ],
          "internalType": "struct Flipkart.Product[]",
          "name": "",
          "type": "tuple[]"
        }
      ],
      "stateMutability": "view",
      "type": "function"
    },
    {
      "inputs": [
        {
          "internalType": "address",
          "name": "add",
          "type": "address"
        }
      ],
      "name": "getMyProducts",
      "outputs": [
        {
          "components": [
            {
              "internalType": "uint256",
              "name": "tokenId",
              "type": "uint256"
            },
            {
              "internalType": "string",
              "name": "productId",
              "type": "string"
            },
            {
              "internalType": "string",
              "name": "productName",
              "type": "string"
            },
            {
              "internalType": "address",
              "name": "owner",
              "type": "address"
            },
            {
              "internalType": "uint256",
              "name": "expiryDate",
              "type": "uint256"
            }
          ],
          "internalType": "struct Flipkart.Product[]",
          "name": "",
          "type": "tuple[]"
        }
      ],
      "stateMutability": "view",
      "type": "function"
    },
    {
      "inputs": [
        {
          "internalType": "string",
          "name": "_productId",
          "type": "string"
        },
        {
          "internalType": "string",
          "name": "_productName",
          "type": "string"
        },
        {
          "internalType": "address",
          "name": "ownerAddress",
          "type": "address"
        },
        {
          "internalType": "uint256",
          "name": "expiryDate",
          "type": "uint256"
        }
      ],
      "name": "createWarranty",
      "outputs": [],
      "stateMutability": "payable",
      "type": "function"
    },
    {
      "inputs": [
        {
          "internalType": "string",
          "name": "_productId",
          "type": "string"
        },
        {
          "internalType": "address",
          "name": "myAddress",
          "type": "address"
        }
      ],
      "name": "claim",
      "outputs": [
        {
          "internalType": "bool",
          "name": "",
          "type": "bool"
        }
      ],
      "stateMutability": "payable",
      "type": "function"
    },
    {
      "inputs": [
        {
          "internalType": "string",
          "name": "_productId",
          "type": "string"
        }
      ],
      "name": "getProductDetails",
      "outputs": [
        {
          "components": [
            {
              "internalType": "uint256",
              "name": "tokenId",
              "type": "uint256"
            },
            {
              "internalType": "string",
              "name": "productId",
              "type": "string"
            },
            {
              "internalType": "string",
              "name": "productName",
              "type": "string"
            },
            {
              "internalType": "address",
              "name": "owner",
              "type": "address"
            },
            {
              "internalType": "uint256",
              "name": "expiryDate",
              "type": "uint256"
            }
          ],
          "internalType": "struct Flipkart.Product",
          "name": "",
          "type": "tuple"
        }
      ],
      "stateMutability": "view",
      "type": "function"
    },
    {
      "inputs": [
        {
          "internalType": "string",
          "name": "_productId",
          "type": "string"
        },
        {
          "internalType": "address",
          "name": "senderAddress",
          "type": "address"
        },
        {
          "internalType": "address",
          "name": "receiverAddress",
          "type": "address"
        }
      ],
      "name": "transferWarranty",
      "outputs": [
        {
          "internalType": "bool",
          "name": "",
          "type": "bool"
        }
      ],
      "stateMutability": "payable",
      "type": "function"
    }
  ],
  "bytecode": "0x608060405260016007553480156200001657600080fd5b506040518060400160405280600d81526020017f466c69706b617274546f6b656e000000000000000000000000000000000000008152506040518060400160405280600481526020017f464c50200000000000000000000000000000000000000000000000000000000081525081600090805190602001906200009b929190620000fe565b508060019080519060200190620000b4929190620000fe565b50505033600660006101000a81548173ffffffffffffffffffffffffffffffffffffffff021916908373ffffffffffffffffffffffffffffffffffffffff16021790555062000212565b8280546200010c90620001dd565b90600052602060002090601f0160209004810192826200013057600085556200017c565b82601f106200014b57805160ff19168380011785556200017c565b828001600101855582156200017c579182015b828111156200017b5782518255916020019190600101906200015e565b5b5090506200018b91906200018f565b5090565b5b80821115620001aa57600081600090555060010162000190565b5090565b7f4e487b7100000000000000000000000000000000000000000000000000000000600052602260045260246000fd5b60006002820490506001821680620001f657607f821691505b6020821081036200020c576200020b620001ae565b5b50919050565b614f6280620002226000396000f3fe6080604052600436106101665760003560e01c806370a08231116100d1578063a22cb4651161008a578063c87b56dd11610064578063c87b56dd1461058d578063cfaaef56146105ca578063e985e9c51461060b578063ea0f9ad91461064857610166565b8063a22cb4651461050b578063a7d5180314610534578063b88d4fde1461056457610166565b806370a08231146103de578063793d3a8a1461041b5780638addc051146104375780638da5cb5b1461047457806395d89b411461049f5780639b4e2ffd146104ca57610166565b8063198c59b011610123578063198c59b0146102a55780632202237d146102e257806323b872dd1461031f57806342842e0e1461034857806360a1da83146103715780636352211e146103a157610166565b806301ffc9a71461016b57806302ee3a52146101a857806306fdde03146101d3578063081812fc146101fe578063095ea7b31461023b57806313c5da5514610264575b600080fd5b34801561017757600080fd5b50610192600480360381019061018d91906138cb565b610685565b60405161019f9190613913565b60405180910390f35b3480156101b457600080fd5b506101bd610767565b6040516101ca9190613b60565b60405180910390f35b3480156101df57600080fd5b506101e8610954565b6040516101f59190613bcc565b60405180910390f35b34801561020a57600080fd5b5061022560048036038101906102209190613c1a565b6109e6565b6040516102329190613c56565b60405180910390f35b34801561024757600080fd5b50610262600480360381019061025d9190613c9d565b610a2c565b005b34801561027057600080fd5b5061028b60048036038101906102869190613e12565b610b43565b60405161029c959493929190613e6a565b60405180910390f35b3480156102b157600080fd5b506102cc60048036038101906102c79190613f2b565b610cbf565b6040516102d99190613ff5565b60405180910390f35b3480156102ee57600080fd5b5061030960048036038101906103049190613e12565b610e88565b6040516103169190613913565b60405180910390f35b34801561032b57600080fd5b5061034660048036038101906103419190614017565b610ebe565b005b34801561035457600080fd5b5061036f600480360381019061036a9190614017565b610f1e565b005b61038b6004803603810190610386919061406a565b610f3e565b6040516103989190613913565b60405180910390f35b3480156103ad57600080fd5b506103c860048036038101906103c39190613c1a565b611260565b6040516103d59190613c56565b60405180910390f35b3480156103ea57600080fd5b50610405600480360381019061040091906140ca565b611311565b60405161041291906140f7565b60405180910390f35b61043560048036038101906104309190614112565b6113c8565b005b34801561044357600080fd5b5061045e60048036038101906104599190613e12565b6119a2565b60405161046b9190613913565b60405180910390f35b34801561048057600080fd5b506104896119d8565b6040516104969190613c56565b60405180910390f35b3480156104ab57600080fd5b506104b46119fe565b6040516104c19190613bcc565b60405180910390f35b3480156104d657600080fd5b506104f160048036038101906104ec9190613c9d565b611a90565b604051610502959493929190613e6a565b60405180910390f35b34801561051757600080fd5b50610532600480360381019061052d91906141e5565b611c13565b005b61054e60048036038101906105499190614225565b611c29565b60405161055b9190613913565b60405180910390f35b34801561057057600080fd5b5061058b6004803603810190610586919061433a565b612213565b005b34801561059957600080fd5b506105b460048036038101906105af9190613c1a565b612275565b6040516105c19190613bcc565b60405180910390f35b3480156105d657600080fd5b506105f160048036038101906105ec9190613c1a565b6122dd565b604051610602959493929190613e6a565b60405180910390f35b34801561061757600080fd5b50610632600480360381019061062d91906143bd565b612453565b60405161063f9190613913565b60405180910390f35b34801561065457600080fd5b5061066f600480360381019061066a91906140ca565b6124e7565b60405161067c9190613b60565b60405180910390f35b60007f80ac58cd000000000000000000000000000000000000000000000000000000007bffffffffffffffffffffffffffffffffffffffffffffffffffffffff1916827bffffffffffffffffffffffffffffffffffffffffffffffffffffffff1916148061075057507f5b5e139f000000000000000000000000000000000000000000000000000000007bffffffffffffffffffffffffffffffffffffffffffffffffffffffff1916827bffffffffffffffffffffffffffffffffffffffffffffffffffffffff1916145b80610760575061075f82612713565b5b9050919050565b60606008805480602002602001604051908101604052809291908181526020016000905b8282101561094b57838290600052602060002090600502016040518060a0016040529081600082015481526020016001820180546107c89061442c565b80601f01602080910402602001604051908101604052809291908181526020018280546107f49061442c565b80156108415780601f1061081657610100808354040283529160200191610841565b820191906000526020600020905b81548152906001019060200180831161082457829003601f168201915b5050505050815260200160028201805461085a9061442c565b80601f01602080910402602001604051908101604052809291908181526020018280546108869061442c565b80156108d35780601f106108a8576101008083540402835291602001916108d3565b820191906000526020600020905b8154815290600101906020018083116108b657829003601f168201915b505050505081526020016003820160009054906101000a900473ffffffffffffffffffffffffffffffffffffffff1673ffffffffffffffffffffffffffffffffffffffff1673ffffffffffffffffffffffffffffffffffffffff1681526020016004820154815250508152602001906001019061078b565b50505050905090565b6060600080546109639061442c565b80601f016020809104026020016040519081016040528092919081815260200182805461098f9061442c565b80156109dc5780601f106109b1576101008083540402835291602001916109dc565b820191906000526020600020905b8154815290600101906020018083116109bf57829003601f168201915b5050505050905090565b60006109f18261277d565b6004600083815260200190815260200160002060009054906101000a900473ffffffffffffffffffffffffffffffffffffffff169050919050565b6000610a3782611260565b90508073ffffffffffffffffffffffffffffffffffffffff168373ffffffffffffffffffffffffffffffffffffffff1603610aa7576040517f08c379a0000000000000000000000000000000000000000000000000000000008152600401610a9e906144cf565b60405180910390fd5b8073ffffffffffffffffffffffffffffffffffffffff16610ac66127c8565b73ffffffffffffffffffffffffffffffffffffffff161480610af55750610af481610aef6127c8565b612453565b5b610b34576040517f08c379a0000000000000000000000000000000000000000000000000000000008152600401610b2b90614561565b60405180910390fd5b610b3e83836127d0565b505050565b600a81805160208101820180518482526020830160208501208183528095505050505050600091509050806000015490806001018054610b829061442c565b80601f0160208091040260200160405190810160405280929190818152602001828054610bae9061442c565b8015610bfb5780601f10610bd057610100808354040283529160200191610bfb565b820191906000526020600020905b815481529060010190602001808311610bde57829003601f168201915b505050505090806002018054610c109061442c565b80601f0160208091040260200160405190810160405280929190818152602001828054610c3c9061442c565b8015610c895780601f10610c5e57610100808354040283529160200191610c89565b820191906000526020600020905b815481529060010190602001808311610c6c57829003601f168201915b5050505050908060030160009054906101000a900473ffffffffffffffffffffffffffffffffffffffff16908060040154905085565b610cc7613618565b600a8383604051610cd99291906145b1565b90815260200160405180910390206040518060a001604052908160008201548152602001600182018054610d0c9061442c565b80601f0160208091040260200160405190810160405280929190818152602001828054610d389061442c565b8015610d855780601f10610d5a57610100808354040283529160200191610d85565b820191906000526020600020905b815481529060010190602001808311610d6857829003601f168201915b50505050508152602001600282018054610d9e9061442c565b80601f0160208091040260200160405190810160405280929190818152602001828054610dca9061442c565b8015610e175780601f10610dec57610100808354040283529160200191610e17565b820191906000526020600020905b815481529060010190602001808311610dfa57829003601f168201915b505050505081526020016003820160009054906101000a900473ffffffffffffffffffffffffffffffffffffffff1673ffffffffffffffffffffffffffffffffffffffff1673ffffffffffffffffffffffffffffffffffffffff168152602001600482015481525050905092915050565b600c818051602081018201805184825260208301602085012081835280955050505050506000915054906101000a900460ff1681565b610ecf610ec96127c8565b82612889565b610f0e576040517f08c379a0000000000000000000000000000000000000000000000000000000008152600401610f059061463c565b60405180910390fd5b610f1983838361291e565b505050565b610f3983838360405180602001604052806000815250612213565b505050565b6000600b8484604051610f529291906145b1565b908152602001604051809103902060009054906101000a900460ff16610fad576040517f08c379a0000000000000000000000000000000000000000000000000000000008152600401610fa4906146a8565b60405180910390fd5b600c8484604051610fbf9291906145b1565b908152602001604051809103902060009054906101000a900460ff161561101b576040517f08c379a000000000000000000000000000000000000000000000000000000000815260040161101290614714565b60405180910390fd5b60006110278585610cbf565b90508273ffffffffffffffffffffffffffffffffffffffff16816060015173ffffffffffffffffffffffffffffffffffffffff161461109b576040517f08c379a000000000000000000000000000000000000000000000000000000000815260040161109290614780565b60405180910390fd5b6110a88160000151612b84565b600960008473ffffffffffffffffffffffffffffffffffffffff1673ffffffffffffffffffffffffffffffffffffffff16815260200190815260200160002060006110f3919061365d565b6000600b86866040516111079291906145b1565b908152602001604051809103902060006101000a81548160ff0219169083151502179055506001600c86866040516111409291906145b1565b908152602001604051809103902060006101000a81548160ff021916908315150217905550600a85856040516111779291906145b1565b908152602001604051809103902060008082016000905560018201600061119e9190613681565b6002820160006111ae9190613681565b6003820160006101000a81549073ffffffffffffffffffffffffffffffffffffffff02191690556004820160009055505060005b60088054905081101561123c57816000015160088281548110611208576112076147a0565b5b906000526020600020906005020160000154036112295761122881612ca1565b5b8080611234906147fe565b9150506111e2565b504281608001511115611253576001915050611259565b60009150505b9392505050565b6000806002600084815260200190815260200160002060009054906101000a900473ffffffffffffffffffffffffffffffffffffffff169050600073ffffffffffffffffffffffffffffffffffffffff168173ffffffffffffffffffffffffffffffffffffffff1603611308576040517f08c379a00000000000000000000000000000000000000000000000000000000081526004016112ff90614892565b60405180910390fd5b80915050919050565b60008073ffffffffffffffffffffffffffffffffffffffff168273ffffffffffffffffffffffffffffffffffffffff1603611381576040517f08c379a000000000000000000000000000000000000000000000000000000000815260040161137890614924565b60405180910390fd5b600360008373ffffffffffffffffffffffffffffffffffffffff1673ffffffffffffffffffffffffffffffffffffffff168152602001908152602001600020549050919050565b600b86866040516113da9291906145b1565b908152602001604051809103902060009054906101000a900460ff1615611436576040517f08c379a000000000000000000000000000000000000000000000000000000000815260040161142d90614990565b60405180910390fd5b61144282600754612e67565b60086040518060a00160405280600754815260200188888080601f016020809104026020016040519081016040528093929190818152602001838380828437600081840152601f19601f82011690508083019250505050505050815260200186868080601f016020809104026020016040519081016040528093929190818152602001838380828437600081840152601f19601f8201169050808301925050505050505081526020018473ffffffffffffffffffffffffffffffffffffffff16815260200183815250908060018154018082558091505060019003906000526020600020906005020160009091909190915060008201518160000155602082015181600101908051906020019061155a9291906136c1565b5060408201518160020190805190602001906115779291906136c1565b5060608201518160030160006101000a81548173ffffffffffffffffffffffffffffffffffffffff021916908373ffffffffffffffffffffffffffffffffffffffff160217905550608082015181600401555050600960008373ffffffffffffffffffffffffffffffffffffffff1673ffffffffffffffffffffffffffffffffffffffff1681526020019081526020016000206040518060a00160405280600754815260200188888080601f016020809104026020016040519081016040528093929190818152602001838380828437600081840152601f19601f82011690508083019250505050505050815260200186868080601f016020809104026020016040519081016040528093929190818152602001838380828437600081840152601f19601f8201169050808301925050505050505081526020018473ffffffffffffffffffffffffffffffffffffffff1681526020018381525090806001815401808255809150506001900390600052602060002090600502016000909190919091506000820151816000015560208201518160010190805190602001906117209291906136c1565b50604082015181600201908051906020019061173d9291906136c1565b5060608201518160030160006101000a81548173ffffffffffffffffffffffffffffffffffffffff021916908373ffffffffffffffffffffffffffffffffffffffff1602179055506080820151816004015550506040518060a00160405280600754815260200187878080601f016020809104026020016040519081016040528093929190818152602001838380828437600081840152601f19601f82011690508083019250505050505050815260200185858080601f016020809104026020016040519081016040528093929190818152602001838380828437600081840152601f19601f8201169050808301925050505050505081526020018373ffffffffffffffffffffffffffffffffffffffff16815260200182815250600a878760405161186a9291906145b1565b908152602001604051809103902060008201518160000155602082015181600101908051906020019061189e9291906136c1565b5060408201518160020190805190602001906118bb9291906136c1565b5060608201518160030160006101000a81548173ffffffffffffffffffffffffffffffffffffffff021916908373ffffffffffffffffffffffffffffffffffffffff160217905550608082015181600401559050506001600b87876040516119249291906145b1565b908152602001604051809103902060006101000a81548160ff0219169083151502179055506000600c878760405161195d9291906145b1565b908152602001604051809103902060006101000a81548160ff02191690831515021790555060076000815480929190611995906147fe565b9190505550505050505050565b600b818051602081018201805184825260208301602085012081835280955050505050506000915054906101000a900460ff1681565b600660009054906101000a900473ffffffffffffffffffffffffffffffffffffffff1681565b606060018054611a0d9061442c565b80601f0160208091040260200160405190810160405280929190818152602001828054611a399061442c565b8015611a865780601f10611a5b57610100808354040283529160200191611a86565b820191906000526020600020905b815481529060010190602001808311611a6957829003601f168201915b5050505050905090565b60096020528160005260406000208181548110611aac57600080fd5b906000526020600020906005020160009150915050806000015490806001018054611ad69061442c565b80601f0160208091040260200160405190810160405280929190818152602001828054611b029061442c565b8015611b4f5780601f10611b2457610100808354040283529160200191611b4f565b820191906000526020600020905b815481529060010190602001808311611b3257829003601f168201915b505050505090806002018054611b649061442c565b80601f0160208091040260200160405190810160405280929190818152602001828054611b909061442c565b8015611bdd5780601f10611bb257610100808354040283529160200191611bdd565b820191906000526020600020905b815481529060010190602001808311611bc057829003601f168201915b5050505050908060030160009054906101000a900473ffffffffffffffffffffffffffffffffffffffff16908060040154905085565b611c25611c1e6127c8565b8383612e85565b5050565b6000600b8585604051611c3d9291906145b1565b908152602001604051809103902060009054906101000a900460ff16611c98576040517f08c379a0000000000000000000000000000000000000000000000000000000008152600401611c8f906146a8565b60405180910390fd5b600c8585604051611caa9291906145b1565b908152602001604051809103902060009054906101000a900460ff1615611d06576040517f08c379a0000000000000000000000000000000000000000000000000000000008152600401611cfd90614714565b60405180910390fd5b6000611d128686610cbf565b90508373ffffffffffffffffffffffffffffffffffffffff16816060015173ffffffffffffffffffffffffffffffffffffffff1614611d86576040517f08c379a0000000000000000000000000000000000000000000000000000000008152600401611d7d90614780565b60405180910390fd5b428160800151111561206357611da13384836000015161291e565b600960008573ffffffffffffffffffffffffffffffffffffffff1673ffffffffffffffffffffffffffffffffffffffff1681526020019081526020016000206000611dec919061365d565b60006040518060a001604052808360000151815260200183602001518152602001836040015181526020018573ffffffffffffffffffffffffffffffffffffffff1681526020018360800151815250905083600a8888604051611e509291906145b1565b908152602001604051809103902060030160006101000a81548173ffffffffffffffffffffffffffffffffffffffff021916908373ffffffffffffffffffffffffffffffffffffffff160217905550600960008573ffffffffffffffffffffffffffffffffffffffff1673ffffffffffffffffffffffffffffffffffffffff168152602001908152602001600020819080600181540180825580915050600190039060005260206000209060050201600090919091909150600082015181600001556020820151816001019080519060200190611f2e9291906136c1565b506040820151816002019080519060200190611f4b9291906136c1565b5060608201518160030160006101000a81548173ffffffffffffffffffffffffffffffffffffffff021916908373ffffffffffffffffffffffffffffffffffffffff16021790555060808201518160040155505060005b60088054905081101561205757826000015160088281548110611fc857611fc76147a0565b5b90600052602060002090600502016000015403612044578460088281548110611ff457611ff36147a0565b5b906000526020600020906005020160030160006101000a81548173ffffffffffffffffffffffffffffffffffffffff021916908373ffffffffffffffffffffffffffffffffffffffff1602179055505b808061204f906147fe565b915050611fa2565b5060019250505061220b565b6120708160000151612b84565b600960008573ffffffffffffffffffffffffffffffffffffffff1673ffffffffffffffffffffffffffffffffffffffff16815260200190815260200160002060006120bb919061365d565b6000600b87876040516120cf9291906145b1565b908152602001604051809103902060006101000a81548160ff0219169083151502179055506001600c87876040516121089291906145b1565b908152602001604051809103902060006101000a81548160ff021916908315150217905550600a868660405161213f9291906145b1565b90815260200160405180910390206000808201600090556001820160006121669190613681565b6002820160006121769190613681565b6003820160006101000a81549073ffffffffffffffffffffffffffffffffffffffff02191690556004820160009055505060005b600880549050811015612204578160000151600882815481106121d0576121cf6147a0565b5b906000526020600020906005020160000154036121f1576121f081612ca1565b5b80806121fc906147fe565b9150506121aa565b5060009150505b949350505050565b61222461221e6127c8565b83612889565b612263576040517f08c379a000000000000000000000000000000000000000000000000000000000815260040161225a9061463c565b60405180910390fd5b61226f84848484612ff1565b50505050565b60606122808261277d565b600061228a61304d565b905060008151116122aa57604051806020016040528060008152506122d5565b806122b484613064565b6040516020016122c59291906149e1565b6040516020818303038152906040525b915050919050565b600881815481106122ed57600080fd5b90600052602060002090600502016000915090508060000154908060010180546123169061442c565b80601f01602080910402602001604051908101604052809291908181526020018280546123429061442c565b801561238f5780601f106123645761010080835404028352916020019161238f565b820191906000526020600020905b81548152906001019060200180831161237257829003601f168201915b5050505050908060020180546123a49061442c565b80601f01602080910402602001604051908101604052809291908181526020018280546123d09061442c565b801561241d5780601f106123f25761010080835404028352916020019161241d565b820191906000526020600020905b81548152906001019060200180831161240057829003601f168201915b5050505050908060030160009054906101000a900473ffffffffffffffffffffffffffffffffffffffff16908060040154905085565b6000600560008473ffffffffffffffffffffffffffffffffffffffff1673ffffffffffffffffffffffffffffffffffffffff16815260200190815260200160002060008373ffffffffffffffffffffffffffffffffffffffff1673ffffffffffffffffffffffffffffffffffffffff16815260200190815260200160002060009054906101000a900460ff16905092915050565b6060600960008373ffffffffffffffffffffffffffffffffffffffff1673ffffffffffffffffffffffffffffffffffffffff168152602001908152602001600020805480602002602001604051908101604052809291908181526020016000905b8282101561270857838290600052602060002090600502016040518060a0016040529081600082015481526020016001820180546125859061442c565b80601f01602080910402602001604051908101604052809291908181526020018280546125b19061442c565b80156125fe5780601f106125d3576101008083540402835291602001916125fe565b820191906000526020600020905b8154815290600101906020018083116125e157829003601f168201915b505050505081526020016002820180546126179061442c565b80601f01602080910402602001604051908101604052809291908181526020018280546126439061442c565b80156126905780601f1061266557610100808354040283529160200191612690565b820191906000526020600020905b81548152906001019060200180831161267357829003601f168201915b505050505081526020016003820160009054906101000a900473ffffffffffffffffffffffffffffffffffffffff1673ffffffffffffffffffffffffffffffffffffffff1673ffffffffffffffffffffffffffffffffffffffff16815260200160048201548152505081526020019060010190612548565b505050509050919050565b60007f01ffc9a7000000000000000000000000000000000000000000000000000000007bffffffffffffffffffffffffffffffffffffffffffffffffffffffff1916827bffffffffffffffffffffffffffffffffffffffffffffffffffffffff1916149050919050565b612786816131c4565b6127c5576040517f08c379a00000000000000000000000000000000000000000000000000000000081526004016127bc90614892565b60405180910390fd5b50565b600033905090565b816004600083815260200190815260200160002060006101000a81548173ffffffffffffffffffffffffffffffffffffffff021916908373ffffffffffffffffffffffffffffffffffffffff160217905550808273ffffffffffffffffffffffffffffffffffffffff1661284383611260565b73ffffffffffffffffffffffffffffffffffffffff167f8c5be1e5ebec7d5bd14f71427d1e84f3dd0314c0f7b2291e5b200ac8c7c3b92560405160405180910390a45050565b60008061289583611260565b90508073ffffffffffffffffffffffffffffffffffffffff168473ffffffffffffffffffffffffffffffffffffffff1614806128d757506128d68185612453565b5b8061291557508373ffffffffffffffffffffffffffffffffffffffff166128fd846109e6565b73ffffffffffffffffffffffffffffffffffffffff16145b91505092915050565b8273ffffffffffffffffffffffffffffffffffffffff1661293e82611260565b73ffffffffffffffffffffffffffffffffffffffff1614612994576040517f08c379a000000000000000000000000000000000000000000000000000000000815260040161298b90614a77565b60405180910390fd5b600073ffffffffffffffffffffffffffffffffffffffff168273ffffffffffffffffffffffffffffffffffffffff1603612a03576040517f08c379a00000000000000000000000000000000000000000000000000000000081526004016129fa90614b09565b60405180910390fd5b612a0e838383613230565b612a196000826127d0565b6001600360008573ffffffffffffffffffffffffffffffffffffffff1673ffffffffffffffffffffffffffffffffffffffff1681526020019081526020016000206000828254612a699190614b29565b925050819055506001600360008473ffffffffffffffffffffffffffffffffffffffff1673ffffffffffffffffffffffffffffffffffffffff1681526020019081526020016000206000828254612ac09190614b5d565b92505081905550816002600083815260200190815260200160002060006101000a81548173ffffffffffffffffffffffffffffffffffffffff021916908373ffffffffffffffffffffffffffffffffffffffff160217905550808273ffffffffffffffffffffffffffffffffffffffff168473ffffffffffffffffffffffffffffffffffffffff167fddf252ad1be2c89b69c2b068fc378daa952ba7f163c4a11628f55a4df523b3ef60405160405180910390a4612b7f838383613235565b505050565b6000612b8f82611260565b9050612b9d81600084613230565b612ba86000836127d0565b6001600360008373ffffffffffffffffffffffffffffffffffffffff1673ffffffffffffffffffffffffffffffffffffffff1681526020019081526020016000206000828254612bf89190614b29565b925050819055506002600083815260200190815260200160002060006101000a81549073ffffffffffffffffffffffffffffffffffffffff021916905581600073ffffffffffffffffffffffffffffffffffffffff168273ffffffffffffffffffffffffffffffffffffffff167fddf252ad1be2c89b69c2b068fc378daa952ba7f163c4a11628f55a4df523b3ef60405160405180910390a4612c9d81600084613235565b5050565b60008190505b6001600880549050612cb99190614b29565b811015612de1576008600182612ccf9190614b5d565b81548110612ce057612cdf6147a0565b5b906000526020600020906005020160088281548110612d0257612d016147a0565b5b9060005260206000209060050201600082015481600001556001820181600101908054612d2e9061442c565b612d39929190613747565b506002820181600201908054612d4e9061442c565b612d59929190613747565b506003820160009054906101000a900473ffffffffffffffffffffffffffffffffffffffff168160030160006101000a81548173ffffffffffffffffffffffffffffffffffffffff021916908373ffffffffffffffffffffffffffffffffffffffff160217905550600482015481600401559050508080612dd9906147fe565b915050612ca7565b506008805480612df457612df3614bb3565b5b6001900381819060005260206000209060050201600080820160009055600182016000612e219190613681565b600282016000612e319190613681565b6003820160006101000a81549073ffffffffffffffffffffffffffffffffffffffff021916905560048201600090555050905550565b612e8182826040518060200160405280600081525061323a565b5050565b8173ffffffffffffffffffffffffffffffffffffffff168373ffffffffffffffffffffffffffffffffffffffff1603612ef3576040517f08c379a0000000000000000000000000000000000000000000000000000000008152600401612eea90614c2e565b60405180910390fd5b80600560008573ffffffffffffffffffffffffffffffffffffffff1673ffffffffffffffffffffffffffffffffffffffff16815260200190815260200160002060008473ffffffffffffffffffffffffffffffffffffffff1673ffffffffffffffffffffffffffffffffffffffff16815260200190815260200160002060006101000a81548160ff0219169083151502179055508173ffffffffffffffffffffffffffffffffffffffff168373ffffffffffffffffffffffffffffffffffffffff167f17307eab39ab6107e8899845ad3d59bd9653f200f220920489ca2b5937696c3183604051612fe49190613913565b60405180910390a3505050565b612ffc84848461291e565b61300884848484613295565b613047576040517f08c379a000000000000000000000000000000000000000000000000000000000815260040161303e90614cc0565b60405180910390fd5b50505050565b606060405180602001604052806000815250905090565b6060600082036130ab576040518060400160405280600181526020017f300000000000000000000000000000000000000000000000000000000000000081525090506131bf565b600082905060005b600082146130dd5780806130c6906147fe565b915050600a826130d69190614d0f565b91506130b3565b60008167ffffffffffffffff8111156130f9576130f8613ce7565b5b6040519080825280601f01601f19166020018201604052801561312b5781602001600182028036833780820191505090505b5090505b600085146131b8576001826131449190614b29565b9150600a856131539190614d40565b603061315f9190614b5d565b60f81b818381518110613175576131746147a0565b5b60200101907effffffffffffffffffffffffffffffffffffffffffffffffffffffffffffff1916908160001a905350600a856131b19190614d0f565b945061312f565b8093505050505b919050565b60008073ffffffffffffffffffffffffffffffffffffffff166002600084815260200190815260200160002060009054906101000a900473ffffffffffffffffffffffffffffffffffffffff1673ffffffffffffffffffffffffffffffffffffffff1614159050919050565b505050565b505050565b613244838361341c565b6132516000848484613295565b613290576040517f08c379a000000000000000000000000000000000000000000000000000000000815260040161328790614cc0565b60405180910390fd5b505050565b60006132b68473ffffffffffffffffffffffffffffffffffffffff166135f5565b1561340f578373ffffffffffffffffffffffffffffffffffffffff1663150b7a026132df6127c8565b8786866040518563ffffffff1660e01b81526004016133019493929190614dc6565b6020604051808303816000875af192505050801561333d57506040513d601f19601f8201168201806040525081019061333a9190614e27565b60015b6133bf573d806000811461336d576040519150601f19603f3d011682016040523d82523d6000602084013e613372565b606091505b5060008151036133b7576040517f08c379a00000000000000000000000000000000000000000000000000000000081526004016133ae90614cc0565b60405180910390fd5b805181602001fd5b63150b7a0260e01b7bffffffffffffffffffffffffffffffffffffffffffffffffffffffff1916817bffffffffffffffffffffffffffffffffffffffffffffffffffffffff191614915050613414565b600190505b949350505050565b600073ffffffffffffffffffffffffffffffffffffffff168273ffffffffffffffffffffffffffffffffffffffff160361348b576040517f08c379a000000000000000000000000000000000000000000000000000000000815260040161348290614ea0565b60405180910390fd5b613494816131c4565b156134d4576040517f08c379a00000000000000000000000000000000000000000000000000000000081526004016134cb90614f0c565b60405180910390fd5b6134e060008383613230565b6001600360008473ffffffffffffffffffffffffffffffffffffffff1673ffffffffffffffffffffffffffffffffffffffff16815260200190815260200160002060008282546135309190614b5d565b92505081905550816002600083815260200190815260200160002060006101000a81548173ffffffffffffffffffffffffffffffffffffffff021916908373ffffffffffffffffffffffffffffffffffffffff160217905550808273ffffffffffffffffffffffffffffffffffffffff16600073ffffffffffffffffffffffffffffffffffffffff167fddf252ad1be2c89b69c2b068fc378daa952ba7f163c4a11628f55a4df523b3ef60405160405180910390a46135f160008383613235565b5050565b6000808273ffffffffffffffffffffffffffffffffffffffff163b119050919050565b6040518060a00160405280600081526020016060815260200160608152602001600073ffffffffffffffffffffffffffffffffffffffff168152602001600081525090565b508054600082556005029060005260206000209081019061367e91906137d4565b50565b50805461368d9061442c565b6000825580601f1061369f57506136be565b601f0160209004906000526020600020908101906136bd9190613842565b5b50565b8280546136cd9061442c565b90600052602060002090601f0160209004810192826136ef5760008555613736565b82601f1061370857805160ff1916838001178555613736565b82800160010185558215613736579182015b8281111561373557825182559160200191906001019061371a565b5b5090506137439190613842565b5090565b8280546137539061442c565b90600052602060002090601f01602090048101928261377557600085556137c3565b82601f1061378657805485556137c3565b828001600101855582156137c357600052602060002091601f016020900482015b828111156137c25782548255916001019190600101906137a7565b5b5090506137d09190613842565b5090565b5b8082111561383e576000808201600090556001820160006137f69190613681565b6002820160006138069190613681565b6003820160006101000a81549073ffffffffffffffffffffffffffffffffffffffff02191690556004820160009055506005016137d5565b5090565b5b8082111561385b576000816000905550600101613843565b5090565b6000604051905090565b600080fd5b600080fd5b60007fffffffff0000000000000000000000000000000000000000000000000000000082169050919050565b6138a881613873565b81146138b357600080fd5b50565b6000813590506138c58161389f565b92915050565b6000602082840312156138e1576138e0613869565b5b60006138ef848285016138b6565b91505092915050565b60008115159050919050565b61390d816138f8565b82525050565b60006020820190506139286000830184613904565b92915050565b600081519050919050565b600082825260208201905092915050565b6000819050602082019050919050565b6000819050919050565b61396d8161395a565b82525050565b600081519050919050565b600082825260208201905092915050565b60005b838110156139ad578082015181840152602081019050613992565b838111156139bc576000848401525b50505050565b6000601f19601f8301169050919050565b60006139de82613973565b6139e8818561397e565b93506139f881856020860161398f565b613a01816139c2565b840191505092915050565b600073ffffffffffffffffffffffffffffffffffffffff82169050919050565b6000613a3782613a0c565b9050919050565b613a4781613a2c565b82525050565b600060a083016000830151613a656000860182613964565b5060208301518482036020860152613a7d82826139d3565b91505060408301518482036040860152613a9782826139d3565b9150506060830151613aac6060860182613a3e565b506080830151613abf6080860182613964565b508091505092915050565b6000613ad68383613a4d565b905092915050565b6000602082019050919050565b6000613af68261392e565b613b008185613939565b935083602082028501613b128561394a565b8060005b85811015613b4e5784840389528151613b2f8582613aca565b9450613b3a83613ade565b925060208a01995050600181019050613b16565b50829750879550505050505092915050565b60006020820190508181036000830152613b7a8184613aeb565b905092915050565b600082825260208201905092915050565b6000613b9e82613973565b613ba88185613b82565b9350613bb881856020860161398f565b613bc1816139c2565b840191505092915050565b60006020820190508181036000830152613be68184613b93565b905092915050565b613bf78161395a565b8114613c0257600080fd5b50565b600081359050613c1481613bee565b92915050565b600060208284031215613c3057613c2f613869565b5b6000613c3e84828501613c05565b91505092915050565b613c5081613a2c565b82525050565b6000602082019050613c6b6000830184613c47565b92915050565b613c7a81613a2c565b8114613c8557600080fd5b50565b600081359050613c9781613c71565b92915050565b60008060408385031215613cb457613cb3613869565b5b6000613cc285828601613c88565b9250506020613cd385828601613c05565b9150509250929050565b600080fd5b600080fd5b7f4e487b7100000000000000000000000000000000000000000000000000000000600052604160045260246000fd5b613d1f826139c2565b810181811067ffffffffffffffff82111715613d3e57613d3d613ce7565b5b80604052505050565b6000613d5161385f565b9050613d5d8282613d16565b919050565b600067ffffffffffffffff821115613d7d57613d7c613ce7565b5b613d86826139c2565b9050602081019050919050565b82818337600083830152505050565b6000613db5613db084613d62565b613d47565b905082815260208101848484011115613dd157613dd0613ce2565b5b613ddc848285613d93565b509392505050565b600082601f830112613df957613df8613cdd565b5b8135613e09848260208601613da2565b91505092915050565b600060208284031215613e2857613e27613869565b5b600082013567ffffffffffffffff811115613e4657613e4561386e565b5b613e5284828501613de4565b91505092915050565b613e648161395a565b82525050565b600060a082019050613e7f6000830188613e5b565b8181036020830152613e918187613b93565b90508181036040830152613ea58186613b93565b9050613eb46060830185613c47565b613ec16080830184613e5b565b9695505050505050565b600080fd5b600080fd5b60008083601f840112613eeb57613eea613cdd565b5b8235905067ffffffffffffffff811115613f0857613f07613ecb565b5b602083019150836001820283011115613f2457613f23613ed0565b5b9250929050565b60008060208385031215613f4257613f41613869565b5b600083013567ffffffffffffffff811115613f6057613f5f61386e565b5b613f6c85828601613ed5565b92509250509250929050565b600060a083016000830151613f906000860182613964565b5060208301518482036020860152613fa882826139d3565b91505060408301518482036040860152613fc282826139d3565b9150506060830151613fd76060860182613a3e565b506080830151613fea6080860182613964565b508091505092915050565b6000602082019050818103600083015261400f8184613f78565b905092915050565b6000806000606084860312156140305761402f613869565b5b600061403e86828701613c88565b935050602061404f86828701613c88565b925050604061406086828701613c05565b9150509250925092565b60008060006040848603121561408357614082613869565b5b600084013567ffffffffffffffff8111156140a1576140a061386e565b5b6140ad86828701613ed5565b935093505060206140c086828701613c88565b9150509250925092565b6000602082840312156140e0576140df613869565b5b60006140ee84828501613c88565b91505092915050565b600060208201905061410c6000830184613e5b565b92915050565b6000806000806000806080878903121561412f5761412e613869565b5b600087013567ffffffffffffffff81111561414d5761414c61386e565b5b61415989828a01613ed5565b9650965050602087013567ffffffffffffffff81111561417c5761417b61386e565b5b61418889828a01613ed5565b9450945050604061419b89828a01613c88565b92505060606141ac89828a01613c05565b9150509295509295509295565b6141c2816138f8565b81146141cd57600080fd5b50565b6000813590506141df816141b9565b92915050565b600080604083850312156141fc576141fb613869565b5b600061420a85828601613c88565b925050602061421b858286016141d0565b9150509250929050565b6000806000806060858703121561423f5761423e613869565b5b600085013567ffffffffffffffff81111561425d5761425c61386e565b5b61426987828801613ed5565b9450945050602061427c87828801613c88565b925050604061428d87828801613c88565b91505092959194509250565b600067ffffffffffffffff8211156142b4576142b3613ce7565b5b6142bd826139c2565b9050602081019050919050565b60006142dd6142d884614299565b613d47565b9050828152602081018484840111156142f9576142f8613ce2565b5b614304848285613d93565b509392505050565b600082601f83011261432157614320613cdd565b5b81356143318482602086016142ca565b91505092915050565b6000806000806080858703121561435457614353613869565b5b600061436287828801613c88565b945050602061437387828801613c88565b935050604061438487828801613c05565b925050606085013567ffffffffffffffff8111156143a5576143a461386e565b5b6143b18782880161430c565b91505092959194509250565b600080604083850312156143d4576143d3613869565b5b60006143e285828601613c88565b92505060206143f385828601613c88565b9150509250929050565b7f4e487b7100000000000000000000000000000000000000000000000000000000600052602260045260246000fd5b6000600282049050600182168061444457607f821691505b602082108103614457576144566143fd565b5b50919050565b7f4552433732313a20617070726f76616c20746f2063757272656e74206f776e6560008201527f7200000000000000000000000000000000000000000000000000000000000000602082015250565b60006144b9602183613b82565b91506144c48261445d565b604082019050919050565b600060208201905081810360008301526144e8816144ac565b9050919050565b7f4552433732313a20617070726f76652063616c6c6572206973206e6f7420746f60008201527f6b656e206f776e6572206e6f7220617070726f76656420666f7220616c6c0000602082015250565b600061454b603e83613b82565b9150614556826144ef565b604082019050919050565b6000602082019050818103600083015261457a8161453e565b9050919050565b600081905092915050565b60006145988385614581565b93506145a5838584613d93565b82840190509392505050565b60006145be82848661458c565b91508190509392505050565b7f4552433732313a2063616c6c6572206973206e6f7420746f6b656e206f776e6560008201527f72206e6f7220617070726f766564000000000000000000000000000000000000602082015250565b6000614626602e83613b82565b9150614631826145ca565b604082019050919050565b6000602082019050818103600083015261465581614619565b9050919050565b7f50726f6475637420646f206e6f74206578697374730000000000000000000000600082015250565b6000614692601583613b82565b915061469d8261465c565b602082019050919050565b600060208201905081810360008301526146c181614685565b9050919050565b7f50726f6475637420697320616c72656164792065787069726564000000000000600082015250565b60006146fe601a83613b82565b9150614709826146c8565b602082019050919050565b6000602082019050818103600083015261472d816146f1565b9050919050565b7f596f7520646f206e6f74206f776e20746869732070726f647563740000000000600082015250565b600061476a601b83613b82565b915061477582614734565b602082019050919050565b600060208201905081810360008301526147998161475d565b9050919050565b7f4e487b7100000000000000000000000000000000000000000000000000000000600052603260045260246000fd5b7f4e487b7100000000000000000000000000000000000000000000000000000000600052601160045260246000fd5b60006148098261395a565b91507fffffffffffffffffffffffffffffffffffffffffffffffffffffffffffffffff820361483b5761483a6147cf565b5b600182019050919050565b7f4552433732313a20696e76616c696420746f6b656e2049440000000000000000600082015250565b600061487c601883613b82565b915061488782614846565b602082019050919050565b600060208201905081810360008301526148ab8161486f565b9050919050565b7f4552433732313a2061646472657373207a65726f206973206e6f74206120766160008201527f6c6964206f776e65720000000000000000000000000000000000000000000000602082015250565b600061490e602983613b82565b9150614919826148b2565b604082019050919050565b6000602082019050818103600083015261493d81614901565b9050919050565b7f50726f6475637420616c72656164792065786973747300000000000000000000600082015250565b600061497a601683613b82565b915061498582614944565b602082019050919050565b600060208201905081810360008301526149a98161496d565b9050919050565b60006149bb82613973565b6149c58185614581565b93506149d581856020860161398f565b80840191505092915050565b60006149ed82856149b0565b91506149f982846149b0565b91508190509392505050565b7f4552433732313a207472616e736665722066726f6d20696e636f72726563742060008201527f6f776e6572000000000000000000000000000000000000000000000000000000602082015250565b6000614a61602583613b82565b9150614a6c82614a05565b604082019050919050565b60006020820190508181036000830152614a9081614a54565b9050919050565b7f4552433732313a207472616e7366657220746f20746865207a65726f2061646460008201527f7265737300000000000000000000000000000000000000000000000000000000602082015250565b6000614af3602483613b82565b9150614afe82614a97565b604082019050919050565b60006020820190508181036000830152614b2281614ae6565b9050919050565b6000614b348261395a565b9150614b3f8361395a565b925082821015614b5257614b516147cf565b5b828203905092915050565b6000614b688261395a565b9150614b738361395a565b9250827fffffffffffffffffffffffffffffffffffffffffffffffffffffffffffffffff03821115614ba857614ba76147cf565b5b828201905092915050565b7f4e487b7100000000000000000000000000000000000000000000000000000000600052603160045260246000fd5b7f4552433732313a20617070726f766520746f2063616c6c657200000000000000600082015250565b6000614c18601983613b82565b9150614c2382614be2565b602082019050919050565b60006020820190508181036000830152614c4781614c0b565b9050919050565b7f4552433732313a207472616e7366657220746f206e6f6e20455243373231526560008201527f63656976657220696d706c656d656e7465720000000000000000000000000000602082015250565b6000614caa603283613b82565b9150614cb582614c4e565b604082019050919050565b60006020820190508181036000830152614cd981614c9d565b9050919050565b7f4e487b7100000000000000000000000000000000000000000000000000000000600052601260045260246000fd5b6000614d1a8261395a565b9150614d258361395a565b925082614d3557614d34614ce0565b5b828204905092915050565b6000614d4b8261395a565b9150614d568361395a565b925082614d6657614d65614ce0565b5b828206905092915050565b600081519050919050565b600082825260208201905092915050565b6000614d9882614d71565b614da28185614d7c565b9350614db281856020860161398f565b614dbb816139c2565b840191505092915050565b6000608082019050614ddb6000830187613c47565b614de86020830186613c47565b614df56040830185613e5b565b8181036060830152614e078184614d8d565b905095945050505050565b600081519050614e218161389f565b92915050565b600060208284031215614e3d57614e3c613869565b5b6000614e4b84828501614e12565b91505092915050565b7f4552433732313a206d696e7420746f20746865207a65726f2061646472657373600082015250565b6000614e8a602083613b82565b9150614e9582614e54565b602082019050919050565b60006020820190508181036000830152614eb981614e7d565b9050919050565b7f4552433732313a20746f6b656e20616c7265616479206d696e74656400000000600082015250565b6000614ef6601c83613b82565b9150614f0182614ec0565b602082019050919050565b60006020820190508181036000830152614f2581614ee9565b905091905056fea264697066735822122036582a03312b190433dbdc4e00379fb05604452a4abefa2b162cb6785aae62d864736f6c634300080d0033",
  "immutableReferences": {},
  "source": "// SPDX-License-Identifier: MIT\npragma solidity ^0.8.11;\n\nimport \"@openzeppelin/contracts/token/ERC721/ERC721.sol\";\n\ncontract Flipkart is ERC721 {\n    address public owner;\n    uint tokenId = 1;\n\n    struct Product{\n        uint tokenId;\n        string productId;\n        string productName;\n        address owner;\n        uint256 expiryDate;\n    }\n\n    Product[] public allProducts;\n\n    mapping(address => Product[]) public productAddress; // Maps products with their owner address\n    mapping(string => Product) public productDetails; // Maps product details with product ID\n    mapping(string => bool) public productExists; // Product already exists or not\n    mapping(string => bool) public productExpire; // Product is expire or not\n\n\n\n    constructor() ERC721(\"FlipkartToken\", \"FLP \") {\n        owner = msg.sender;\n    }\n\n    function getAllProducts() public view returns (Product[] memory){\n        return allProducts;\n    }\n\n    function getMyProducts(address add) public view returns (Product[] memory){\n        return productAddress[add];\n\n    }\n\n    function createWarranty(string calldata _productId, string calldata _productName, address ownerAddress, uint256 expiryDate) public payable {\n\n        require(!productExists[_productId], \"Product already exists\");\n        _safeMint(ownerAddress, tokenId);\n\n\n        allProducts.push(Product(tokenId, _productId,  _productName, ownerAddress, expiryDate));\n\n        productAddress[ownerAddress].push(Product(tokenId, _productId,  _productName, ownerAddress, expiryDate));\n\n        productDetails[_productId] = Product(tokenId, _productId,  _productName, ownerAddress, expiryDate);\n\n        productExists[_productId] = true;\n        productExpire[_productId] = false;\n\n        tokenId++;\n\n    }\n\n    function claim(string calldata _productId, address myAddress) public payable returns(bool){\n\n        require(productExists[_productId], \"Product do not exists\");\n        require(!productExpire[_productId],\"Product is already expired\");\n\n        Product memory product = getProductDetails(_productId);\n\n        require(product.owner == myAddress,\"You do not own this product\");\n\n                _burn(product.tokenId);\n                delete productAddress[myAddress];\n                productExists[_productId] = false;\n                productExpire[_productId] = true;\n                delete productDetails[_productId];\n\n                for(uint i=0 ; i<allProducts.length ; i++){\n                    if(allProducts[i].tokenId == product.tokenId){\n                        deleteProduct(i);\n                    }\n                }\n\n            if(product.expiryDate > block.timestamp){\n                return true;\n            }\n\n        return false;\n\n    }\n\n\n    function deleteProduct(uint index) private{\n        for (uint i = index; i<allProducts.length-1; i++){\n            allProducts[i] = allProducts[i+1];\n        }\n        allProducts.pop();\n    }\n\n\n    function getProductDetails(string calldata _productId) public view returns(Product memory){\n        return productDetails[_productId];\n    }\n\n\n    function transferWarranty(string calldata _productId, address senderAddress,address receiverAddress) public payable returns(bool){\n\n        require(productExists[_productId], \"Product do not exists\");\n        require(!productExpire[_productId],\"Product is already expired\");\n\n        Product memory product = getProductDetails(_productId);       \n\n        require(product.owner == senderAddress, \"You do not own this product\"); \n\n        if(product.expiryDate > block.timestamp){\n    \n            _transfer(msg.sender, receiverAddress, product.tokenId);\n            delete productAddress[senderAddress];\n\n            Product memory newProduct = Product(product.tokenId,\n                                            product.productId,\n                                            product.productName,\n                                            receiverAddress,\n                                            product.expiryDate);\n\n            productDetails[_productId].owner = receiverAddress;\n            productAddress[receiverAddress].push(newProduct);\n            \n            for(uint i=0 ; i<allProducts.length ; i++){\n                if(allProducts[i].tokenId == product.tokenId){\n                        allProducts[i].owner = receiverAddress;\n                }\n            }\n\n            return true;\n\n        }\n        else{\n                _burn(product.tokenId);\n                delete productAddress[senderAddress];\n                productExists[_productId] = false;\n                productExpire[_productId] = true;\n                delete productDetails[_productId];\n\n                for(uint i=0 ; i<allProducts.length ; i++){\n                    if(allProducts[i].tokenId == product.tokenId){\n                        deleteProduct(i);\n                    }\n                }\n        }\n\n        return false ;\n    }\n\n}",
  "sourcePath": "C:\\Users\\Sandeep\\OneDrive\\Desktop\\BlockChain-Grid4.0\\src\\contracts\\Flipkart.sol",
  "compiler": {
    "name": "solc",
    "version": "0.8.13+commit.abaa5c0e.Emscripten.clang"
  },
  "schemaVersion": "3.4.7",
  "updatedAt": "2022-07-31T12:16:57.107Z",
  "devdoc": {
    "kind": "dev",
    "methods": {
      "approve(address,uint256)": {
        "details": "See {IERC721-approve}."
      },
      "balanceOf(address)": {
        "details": "See {IERC721-balanceOf}."
      },
      "getApproved(uint256)": {
        "details": "See {IERC721-getApproved}."
      },
      "isApprovedForAll(address,address)": {
        "details": "See {IERC721-isApprovedForAll}."
      },
      "name()": {
        "details": "See {IERC721Metadata-name}."
      },
      "ownerOf(uint256)": {
        "details": "See {IERC721-ownerOf}."
      },
      "safeTransferFrom(address,address,uint256)": {
        "details": "See {IERC721-safeTransferFrom}."
      },
      "safeTransferFrom(address,address,uint256,bytes)": {
        "details": "See {IERC721-safeTransferFrom}."
      },
      "setApprovalForAll(address,bool)": {
        "details": "See {IERC721-setApprovalForAll}."
      },
      "supportsInterface(bytes4)": {
        "details": "See {IERC165-supportsInterface}."
      },
      "symbol()": {
        "details": "See {IERC721Metadata-symbol}."
      },
      "tokenURI(uint256)": {
        "details": "See {IERC721Metadata-tokenURI}."
      },
      "transferFrom(address,address,uint256)": {
        "details": "See {IERC721-transferFrom}."
      }
    },
    "version": 1
  },
  "userdoc": {
    "kind": "user",
    "methods": {},
    "version": 1
  }
}